:020000040800F2
:10000000804400205D020008F314000891130008EA
:10001000F11400088D030008891900080000000091
:100020000000000000000000000000009D0100082A
:10003000F503000800000000F9010008C1150008E0
:1000400077020008770200087702000877020008AC
:10005000770200087702000877020008770200089C
:10006000770200087702000877020008770200088C
:10007000770200087702000877020008770200087C
:10008000770200087702000877020008770200086C
:10009000770200087702000877020008770200085C
:1000A000770200087702000877020008770200084C
:1000B000770200087702000877020008770200083C
:1000C000770200087702000877020008770200082C
:1000D000770200087702000877020008770200081C
:1000E000770200087702000877020008770200080C
:1000F00077020008770200087702000877020008FC
:1001000077020008770200087702000877020008EB
:1001100077020008770200088D16000877020008B1
:1001200077020008770200087702000877020008CB
:1001300077020008770200087702000877020008BB
:1001400077020008770200087702000877020008AB
:10015000770200087702000877020008770200089B
:10016000770200087702000877020008770200088B
:1001700077020008770200087702000800000000FC
:100180007702000877020008DFF80CD000F0ECF8E6
:1001900000480047D5190008804400202C4B1968FE
:1001A0000868B0E8F04F80F30988BFF36F8F4FF015
:1001B000000080F3118870470000000008480068C4
:1001C000006880F308884FF0000080F3148862B65E
:1001D00061B6BFF34F8FBFF36F8F00DF00BF00BF6B
:1001E00008ED00E0DFF80C00016841F470010160E7
:1001F000704700BF88ED00E0EFF30980BFF36F8F19
:10020000134B1A681EF0100F08BF20ED108A20E96A
:10021000F04F106009B44FF0500080F31188BFF325
:100220004F8FBFF36F8F02F0E5F84FF0000080F3BF
:10023000118809BC19680868B0E8F04F1EF0100F6B
:1002400008BFB0EC108A80F30988BFF36F8F704746
:1002500020000020EFF3058070470000064880472B
:1002600006480047FEE7FEE7FEE7FEE7FEE7FEE79B
:10027000FEE7FEE7FEE7FEE77116000889010008C9
:100280002DE9F05F0546002092469B4688460646CB
:10029000814640241BE0284641464746224600F05E
:1002A00053F853465A46C01A914110D31146184686
:1002B000224600F03AF82D1A67EB01084F46224615
:1002C0000120002100F031F817EB00094E41201EFB
:1002D000A4F10104DFDC484631462A464346BDE826
:1002E000F09F40EA01039B0703D009E008C9121FF1
:1002F00008C0042AFAD203E011F8013B00F8013BE0
:10030000521EF9D27047D2B201E000F8012B491E0B
:10031000FBD270470022F6E710B513460A460446A2
:100320001946FFF7F0FF204610BD202A04DB203AD3
:1003300000FA02F1002070479140C2F1200320FA38
:1003400003F3194390407047202A04DB203A21FA36
:1003500002F00021704721FA02F3D040C2F12002DE
:100360009140084319467047064C074D06E0E06887
:1003700040F0010394E8070098471034AC42F6D3EC
:10038000FFF706FFE42C0008042D0008FEE700003C
:1003900000B58BB00020012103900490CDE9060147
:1003A000CDE908100590009001900290694606483A
:1003B00000F034F8044800F07BF90221024800F014
:1003C0001BF80BB000BD0000D402002030B504685B
:1003D000256825F480252560046863608368402BC8
:1003E000036803D099600068C26030BD9A600068FD
:1003F000C16030BD7047704790F82020012A07D0B7
:10040000022A05D0416A41F48021416201207047EF
:10041000006842690A4342610020704710B590F8B5
:100420002020012A07D0022A05D0416A41F4802108
:100430004162012010BD3B48D0F8002242F0010289
:10044000C0F80022D0F8002222F47C52C0F800222A
:10045000D0F800224B6A42EA0322C0F800220A7D4B
:1004600002F01F0301229A40D0F81C329343C0F8D7
:100470001C32CB69B3B9D0F80C329343C0F80C32BC
:100480008C894B6864F31F434C6900EBC404C4F8C7
:1004900040320C890B6864F31F434C6900EBC404C1
:1004A000C4F84432CB69012B16D1D0F80C32134377
:1004B000C0F80C320C884B6864F31F434C6900EBA6
:1004C000C404C4F840320C89CB6864F31F434C6900
:1004D00000EBC404C4F844328B69002BD0F804321A
:1004E0000ED01343C0F804320B69002BD0F814323D
:1004F00008D01343C0F81432096A012904D008E077
:100500009343EFE79343F5E7D0F81C121143C0F88B
:100510001C12D0F8001221F00101C0F800120020D6
:1005200010BD00000064004070B5040003D094F8D2
:10053000200010B104E0012070BD204600F082F8D8
:100540002068016821F00201016000F009FA054607
:10055000052604E000F004FA401B0A2811D82068A0
:1005600040688007F6D42068016841F0010101600D
:1005700000F0F6F905460BE000F0F2F9401B0A28FE
:1005800006D9606A40F40030606284F82060D2E7E7
:1005900020684068C007EFD0207E012820680168ED
:1005A0003DD021F080010160607E01282068016853
:1005B00038D021F040010160A07E01282068016848
:1005C00033D021F020010160E07E0128206801681D
:1005D0002ED041F010010160207F012820680168C1
:1005E00029D021F008010160607F0128206801689E
:1005F00024D021F004010160D4E902010843D4E9C8
:100600000412114308436168491E08432168C86108
:1006100000206062012084F82000002070BD41F0BD
:100620008001C0E741F04001C5E741F02001CAE781
:1006300021F01001CFE741F00801D4E741F00401B7
:10064000D9E7000010B586B0044614216846FFF7CC
:1006500061FE14492068884221D1134800210268B4
:1006600042F000720260006800F0007005900E48D1
:100670001038026842F001020260006800F00100D8
:1006800005904FF4C05000900220CDE901010320F5
:100690000390092004906946044800F07FF806B0F2
:1006A00010BD0000006400404038024000000240DD
:1006B00070B5044690F82000012804D0606A40F428
:1006C0000020606218E0022084F8200020680168A1
:1006D00021F00101016000F043F905460EE000BF82
:1006E00000F03EF9401B0A2808D9606A40F4003047
:1006F0006062052084F82000012070BD20684068F9
:10070000C007EDD1606270BD2DE9F0410446866DF1
:1007100090F83400002501280DD0012084F8340021
:1007200094F835700020012F07D084F8340002259A
:100730002846BDE8F0810220FBE7022784F83570E7
:1007400060652046FFF742FE94F85C103F20884029
:10075000B0602068016841F016010160206C20B192
:100760002068016841F0080101602068016841F0DB
:1007700001010160DCE7000070B5044600F0F0F80C
:100780000546601C02D004480078044400F0E8F8F4
:10079000401BA042FAD370BD100000202DE9F84F95
:1007A00000224FF0010803254FF00F0E0B6808FAE6
:1007B00002F42340A3426ED14E68012E05D0022ED2
:1007C00003D0112E01D0122E12D186684FEA420CAE
:1007D00005FA0CF7BE43CF6807FA0CF7374387607A
:1007E0004668A6430C79C4F3001494403443446033
:1007F000C668570005FA07FC8C6826EA0C06BC4060
:100800003443C4604C68022C01D0122C13D1D4089C
:1008100000EB8404A346D4F8209054074FEAD46A2E
:100820000EFA0AF629EA06090E6906FA0AF646EAF7
:100830000906CBF8206006680C7926EA0C0604F05D
:100840000304BC40344304604C68E40065D5364C76
:10085000266846F480462660246822F0030604F4E5
:1008600080440094314C3444A446D4F80848960798
:10087000370F0EFA07F6B4432D4EB04201D10026D1
:1008800024E02C4EB04201D101261FE02A4EB04296
:1008900002D102261AE040E0284EB04201D10326E0
:1008A00014E0274EB04201D104260FE0254EB0429D
:1008B00001D105260AE0244EB04201D1062605E00A
:1008C000224EB04201D1072600E00826BE40264352
:1008D000CCF808681E4E34684F689C43FF0300D56F
:1008E0001C4334601A4C241D26684F689E43BF0386
:1008F00000D51E432660164E083634684F689C4368
:10090000FF0200D51C433460114E0C3634684F682A
:100910009C43BF0200D51C433460521C102AFFF4D4
:1009200045AFBDE8F88F0000443802400030014078
:10093000000002400004024000080240000C024097
:10094000001002400014024000180240001C024047
:10095000003C01400AB1816170470904FBE70000D7
:10096000014880687047000010000020024881683C
:100970000278114481607047100000200B4810B5C8
:10098000016841F400710160016841F48061016017
:10099000016841F480710160032000F089F80020B3
:1009A00000F006F800F03EF8002010BD003C0240C8
:1009B00010B5014688B00022362000F059F83620E4
:1009C00000F048F813480024016841F0100101606C
:1009D000006805A900F010000690684600F014F9C0
:1009E00000F032F90C494000B0FBF1F10C480B4A21
:1009F000491E026040F2E732C0E90324C0E9011455
:100A000000F022FB10B1012008B010BD044800F036
:100A100037FBF9E74038024040420F000010004029
:100A2000500300200A4808B5016841F48041016084
:100A3000006800F4804000900548001F016841F004
:100A400080510160006800F08050009008BD0000F7
:100A500044380240002809DB00F01F0201219140C8
:100A60004009800000F1E020C0F80011704700004C
:100A7000F0B40E4B1B680C46C3F30223C3F1070509
:100A8000042D00D90425191D072901D2002300E0F7
:100A9000DB1E012606FA05F1491E214099409E40C1
:100AA000761E16403143F0BC00F06FBF0CED00E045
:100AB000064900F0070208684FF6FF03184040EAB5
:100AC0000220034A10430860704700000CED00E06C
:100AD0000000FA052DE9F0470E46050065D0DFF865
:100AE0001481D8F80000F7B200F00F00B04207D22E
:100AF00088F80070D8F8000000F00F00B04254D120
:100B000028683D4C810712D5400703D5206840F482
:100B1000E05020602878000703D5206840F460404A
:100B200020602068A96820F0F00008432060287841
:100B3000C0072DD0304968680839012812D0022832
:100B400013D0032811D00968890700292DDA2168FC
:100B500021F0030101432160FFF702FF814641F2CA
:100B6000883A0EE009688903EFE709688901ECE734
:100B7000FFF7F6FEA0EB0901514502D90320BDE8BD
:100B8000F0872068696800F00C00B0EB810FEFD1AE
:100B9000D8F80010404601F00F01B14207D90770A4
:100BA000006800F00F00B04201D00120E7E728788C
:100BB000400705D52068E96820F4E050084320602C
:100BC0002878000706D52068296920F4604040EAAB
:100BD000C100206000F058F82168084AC1F30311F1
:100BE000515CC8400649086006480068FFF7E0FE0F
:100BF0000020C4E7003C024008380240C42C000832
:100C00001C000020140000200F2202600C4A136810
:100C100003F003034360136803F0F0038360136879
:100C200003F4E053C36012684FF4E05303EAD202C6
:100C300002610448006800F00F000860704700007F
:100C400008380240003C0240044805490068096831
:100C5000044AC1F38221515CC84070471C00002047
:100C600008380240D42C0008044805490068096887
:100C7000044AC1F34231515CC84070471C00002057
:100C800008380240D42C0008154810B5006810F050
:100C90000C02144813D04110042A0FD0082A0ED198
:100CA0000F4C241F2268236802F03F025B0207D525
:100CB0002068C0F38810A0FB010106E0084610BDC3
:100CC0002168C1F38811A1FB00010023FFF7D8FAC6
:100CD0002168C1F30141491C4900B0FBF1F010BD8E
:100CE000083802400024F4002DE9F84F04006ED0CB
:100CF0002078DFF83C93C007A9F104054AD009F138
:100D000004000168C1F38101012908D00068C0F323
:100D1000810002280AD1D9F80000400206D52868CF
:100D2000800337D560680028E1D033E06068B0F513
:100D3000803F10D0B0F5A02F286810D020F480306C
:100D40002860286820F4802028606068A8B1FFF738
:100D500007FE06460DE0286840F48030F4E740F4D2
:100D600080202860F7E700BFFFF7FAFD801B6428AA
:100D700073D828688003F7D50CE0FFF7F1FD06462D
:100D800005E000BFFFF7ECFD801B6428F0D8286861
:100D90008003F7D42078DFF89C8280074FF0000AA8
:100DA0003ED5A348001D016811F00C0F08D0006863
:100DB000C0F3810002280BD1D9F80000400207D40B
:100DC0002868800716D5E068012800D112E02BE1E1
:100DD000E068B8B10120C8F80000FFF7C1FD064681
:100DE00005E000BFFFF7BCFD801B0228C0D82868C3
:100DF0008007F7D52868216920F0F80040EAC10093
:100E000028600DE0C8F800A0FFF7AAFD064604E040
:100E1000FFF7A6FD801B02281FD828688007F7D49B
:100E20002078000722D5824E83486169703671B1FF
:100E300001210160FFF794FD074604E0FFF790FDF4
:100E4000C01B022809D830688007F7D50EE0C0F82B
:100E500000A0FFF785FD074605E082E0FFF780FD73
:100E6000C01B02287DD830688007F7D4207840075F
:100E700068D5DFF8BCB100270BF13C0BDBF80000B4
:100E8000C0000BD4DBF8001041F08051CBF800100B
:100E9000DBF80000012700F080500090674E3068BA
:100EA000C00510D4306840F480703060FFF758FD02
:100EB000009005E0FFF754FD0099401A022850D831
:100EC0003068C005F6D55A4EA0686C3601280FD0A0
:100ED0000528306810D020F001003060306820F024
:100EE00004003060A068B8B1FFF73AFD00900FE051
:100EF000306840F00100F4E740F004003060F7E7AC
:100F0000FFF72EFD0099411A41F28830814266D8E0
:100F100030688007F4D50EE0FFF722FD009007E06F
:100F2000FFF71EFD0099411A41F28830814256D8E0
:100F300030688007F4D42FB1DBF8001021F0805125
:100F4000CBF80010A069C8B33949091D0968C1F37D
:100F5000810102294AD00228504607D0C8F8600013
:100F600000E03CE0FFF7FCFC04463BE04746C8F8E5
:100F70006000FFF7F5FC064605E000BFFFF7F0FC58
:100F8000801B02282BD828688001F7D4D4E90701F8
:100F90000843A16A2A4A490802EB0141626A41EA10
:100FA0008211084394F82C1040EA0161C9F800103E
:100FB00001203866FFF7D4FC044606E036E000BFA7
:100FC000FFF7CEFC001B022809D828688001F7D55E
:100FD0002CE000BFFFF7C4FC001B022802D903204D
:100FE000BDE8F88F28688001F4D41FE00128F7D00D
:100FF000D9F80000E26900F48001914214D1226A1C
:1010000000F03F0191420FD147F6C071626A014082
:10101000914209D1A26A00F44031914204D1E16ABF
:1010200000F07060884201D00120D9E70020D7E7A6
:101030000438024000004742800E474200700040E2
:101040000000FFFF7047704710B5040003D094F80C
:101050003D0010B107E0012010BD002084F83C00E5
:10106000204600F00CF8022084F83D00211D206885
:1010700000F012FB012084F83D00002010BD7047F5
:101080000168CA6842F00102CA600068816801F024
:101090000701062903D0016841F001010160002029
:1010A0007047704770B50446006801694FF000054D
:1010B000C943890715D4C168C943890711D4E91EFA
:1010C000016101202077206880698007204602D0D6
:1010D000FFF7E7FF04E000F098F8204600F096F8EC
:1010E000257720680169C943490717D4C168C943F6
:1010F000490713D46FF004010161022020772068B2
:10110000806910F4407F204602D0FFF7CAFF04E058
:1011100000F07BF8204600F079F825772068016917
:10112000C943090716D4C168C943090712D46FF02F
:1011300008010161042020772068C06980072046EB
:1011400002D0FFF7AEFF04E000F05FF8204600F0A9
:101150005DF8257720680169C943C90617D4C168BD
:10116000C943C90613D46FF010010161082020772C
:101170002068C06910F4407F204602D0FFF791FF3D
:1011800004E000F042F8204600F040F8257720689F
:101190000169C943C90708D1C168C943C90704D156
:1011A000891E0161204600F033F820680169C943B7
:1011B000090609D4C168C943090605D46FF0800146
:1011C00001612046FFF73EFF20680169C9434906D7
:1011D00009D4C168C943490605D46FF040010161D3
:1011E000204600F01FF820680169C94389060BD426
:1011F000C168C943890607D46FF020010161204608
:10120000BDE87040FFF71FBF70BD7047704700001A
:1012100000680349884201D1FFF7A8BB704700006E
:10122000001000407047704770B5040004D094F877
:101230003900002510B106E0012070BD84F8385057
:10124000204600F023F8242084F839002068C16883
:1012500021F40051C160204600F002FB20680169C2
:1012600021F4904101612068416921F02A01416126
:101270002068C16841F40051C160E563202084F812
:10128000390084F83A00002070BD000010B586B027
:10129000044614216846FFF73DF813492068884248
:1012A00020D112480021026842F400320260006836
:1012B00000F4003005900D481038026842F0080232
:1012C0000260006800F00800059060200090022095
:1012D000CDE90101032003900720049069460448EA
:1012E000FFF75CFA06B010BD0044004040380240F1
:1012F000000C0240F8B5044690F83A0020283CD192
:10130000C1B3BAB394F83800012836D0012084F86C
:101310003800A162A2850025E563222084F83A0006
:10132000636B1748D863636B16481864636B164881
:10133000D864606B134605650846666B21680246F3
:101340003046091DFFF7E0F9206801684168009107
:1013500084F83850C16841F48071C16020684169E7
:1013600041F0010141612068416941F04001416162
:101370000020F8BDFFE70120FBE70220F9E70000AD
:10138000EB17000827180008A117000870477047DE
:10139000FEE700000D4810B50B49016010214160C7
:1013A00000218160C16001614161017641768176F1
:1013B000C17601774177FFF7B7F8002803D0BDE881
:1013C0001040FFF718B810BD00640040D4020020A0
:1013D00030B5174D95B012AB95E8070083E80700CC
:1013E00012A800F096FB134C0C35206095E80F0016
:1013F0000EAD85E80F0000210EA800F014FB0C498B
:10140000E0601C221C316846FEF76BFF0021684635
:1014100000F0AEFB064960601C22383107A8FEF7D9
:1014200060FF002107A800F0A3FBA06015B030BD4D
:10143000702C00080000002030B587B014216846E9
:10144000FEF768FF1A480024016841F0800101603E
:10145000016801F080010591016841F0010101601E
:10146000016801F001010591016841F00801016086
:10147000016801F008010591016841F00201016075
:1014800000680C4D00F00200059001224021284622
:10149000FFF760FA402000900120CDE9010403200D
:1014A000039069462846FFF779F907B030BD000080
:1014B00030380240000402400C4810B50A4901606F
:1014C0004FF4E1314160002181600C22C160C0E92C
:1014D00004128161C161FFF7A7FE002803D0BDE8B7
:1014E0001040FEF788BF10BD0044004010030020EC
:1014F000FEE7704731490A88C2F30A02A2F580620A
:1015000002804A788B78D20842EA4312C2F30A0278
:10151000A2F5806242808A78CB78920942EA8302FF
:101520000B7942EA8322C2F30A02A2F5806282802A
:101530000A794B79520842EAC312C2F30A02A2F5B1
:101540008062C2804A79920902724A79C2F301121A
:101550004272CA8842810A8982810A7B82734A7BED
:10156000C273CA890282098AC1F30A01C1F5806186
:10157000418402F00101817402F00201C17402F0A1
:101580000401017502F00801417502F01001817536
:1015900002F02001C17502F04001017602F08001E5
:1015A000417600218176C176017741778177C177D5
:1015B00080F8201080F8211070470000FC02002005
:1015C00010B5502080F31188BFF34F8FBFF36F8F9A
:1015D00001F002FA18B104494FF080500860002071
:1015E00080F3118810BD000004ED00E030B593B029
:1015F00030216846FEF78EFE14210CA8FEF78AFE05
:1016000019480025016841F080510160006800F030
:10161000805011901548016841F4804101600068D4
:10162000022400F4804011900120039010200490C7
:10163000009406940820CDE90750A820CDE90904BC
:1016400004200B906846FFF74FFB0CA90F2081E8A0
:1016500031004FF4A0500F90E002109005210CA82B
:10166000FFF738FA13B030BD403802400070004038
:101670000548016841F47001016003494FF00060C2
:10168000803908607047000088ED00E00148FFF7EE
:1016900009BD000050030020F0B50268254C264D1E
:1016A000264E274F274B4FF0804CA04209D0604573
:1016B00007D0A84205D0B04203D0B84201D098422A
:1016C00004D122F0700E4A6842EA0E02A0421BD0FA
:1016D000604519D0A84217D0B04215D0B84213D0F7
:1016E000984211D0184DA8420ED0184DA8420BD0E8
:1016F000174DA84208D0174DA84205D0164DA84254
:1017000002D0164DA84203D122F44075CA682A437C
:101710004D6922F080022A4302608A68C2620A6828
:101720008262A04201D0984201D10969016301217E
:101730004161F0BD0000014000040040000800408D
:10174000000C004000040140004001400044014002
:101750000048014000180040001C004000200040EC
:10176000084D286800F0A0F9040006D0FFF7C2FE7B
:101770000A222146E86800F069F90A2000F047F9DA
:10178000EFE7000000000020012000F040F9FBE737
:101790000249122201F11400FFF7ACBDFC02002047
:1017A00070B5846B2068406994F83910C0F3C0109C
:1017B0000025212904D118B1E584204600F046F81F
:1017C0002068406994F83A10C0F38010222904D1AF
:1017D00018B1E585204600F02BF8E06B40F01000D2
:1017E000E0632046FFF71FFD70BD10B50146806B1A
:1017F00009680968C90513D40021C1850168CA6850
:1018000022F48072CA6001684A6922F001024A61CA
:1018100001684A6922F040024A61202180F83A10AA
:10182000FFF7B4FD10BD10B5806BFFF7B0FD10BD24
:101830000168CA6822F49072CA6001684A6922F09D
:1018400001024A61202180F83A1070470168CA6895
:1018500022F0C002CA60202180F8391070470000D1
:101860002DE9F041044600680169E26821F4405125
:10187000114301612169A068E2690843616911436C
:1018800008432168CA6849F20C639A430243CA605C
:1018900020684169A26921F4407111434161E06906
:1018A000192764253226B0F5004F354A354920689E
:1018B0004FF0000806D0884201D0904236D1FFF7A1
:1018C000D3F935E0884201D0904202D1FFF7CCF93C
:1018D00001E0FFF7B9F961684A18A0FB070148EB7E
:1018E0000803FEF7CDFC0146B0FBF5F00201B1FBA9
:1018F000F5F06FF01803584301EB800006EBC000D1
:10190000B0FBF5F000F0F80002EB4002B1FBF5F09F
:10191000584301EB800006EBC000B0FBF5F000F08F
:101920000700216810448860BDE8F081FFF78CF95A
:1019300061688B0F8A00A0FB0701FEF7A1FC01463E
:10194000B0FBF5F06FF01802504301EB800006EB9E
:101950000010B0FBF5F000F0F002B1FBF5F002EB87
:101960000012B1FBF5F06FF01803584301EB800053
:1019700006EB0010B0FBF5F000F00F00D1E700001F
:101980000014014000100140FEE70907090E00287D
:1019900004DB00F1E02080F80014704700F00F0035
:1019A00000F1E02080F8141D704702E008C8121F03
:1019B00008C1002AFAD170477047002001E001C138
:1019C000121F002AFBD17047EFF30580002800D0DA
:1019D00001207047FEF7D2FFFFF708FEFFF72CFD4E
:1019E000FFF7D8FCFFF768FDFEF7D2FCFFF7D0FE4B
:1019F0004FF47A70FEF7C0FEFFF7EAFC00F00EF835
:101A0000FEE701460020842900D0C81C704710B5AD
:101A100000B9012000F064FC002010BD10B500F0FA
:101A2000ABFC002010BD38B5D0E9011204683AB112
:101A3000C3682BB100200090204600F0A7FD38BD00
:101A40002046BDE83840002200F07CBD37B5054691
:101A500082B000200090140000D10124FFF7B4FFF1
:101A60004FF0000388B16A4603A9284600F0B6FE8D
:101A7000012811D1009890B10A494FF080500860B8
:101A8000BFF34F8FBFF36F8F09E0224603A92846AB
:101A900000F0F4FD012802D0FF2005B030BD002089
:101AA000FBE7000004ED00E070B5002504462E467B
:101AB000FFF78AFF48B15020EFF3118580F31188BA
:101AC000BFF34F8FBFF36F8F01E000F06BFB00217E
:101AD000A26809E020690844B0FBF2F302FB13009E
:101AE00063681B5C43B1491C8A42F3D8FFF76CFF63
:101AF00058B185F311880AE0626801211154E26847
:101B00002168206100FB0216F0E700F06BFB304615
:101B100070BD2DE9F04105464068C01C20F0030768
:101B2000142000F06DFA04001FD0002628682661FA
:101B3000C4E90207286800F063FA606088B1286889
:101B4000784300F05DFA206040B1002002E0616857
:101B50000E54401C29688142F9D806E0606800F004
:101B600055FB204600F052FB00242046BDE8F081E2
:101B70007FB50D4604464169B0F9080081B1A169FD
:101B800071B1FFF73EFFD4E905128DE80700D4E9F3
:101B900000102B46226900F0E6FE039004B070BDF1
:101BA000FFF72FFF03A9CDE90001208A2B4682B25F
:101BB000D4E9001000F0AAFE012801D00020EDE7D2
:101BC0000398EBE72DE9F041184C0F46054666698E
:101BD0002068001D00F096FA38B9206890F82C10A3
:101BE00001208840A1698143A161681C07D137B1F8
:101BF0002168BDE8F0410E48091D00F0C7BA206811
:101C00003544B5424560216805D2A068BDE8F04181
:101C1000091D00F0A3BA6068091D00F09FFA206B4F
:101C2000854200D22563BDE8F0810000200000203D
:101C30006C0400202DE9F041054600F0B3FA2E4C6B
:101C40002069401C206120682C4F10B1E06940B32E
:101C50002DE025602069012829D1002606EB8600A9
:101C600007EB800000F06CFA761C072EF6D32348B1
:101C70008C3000F065FA2148A03000F061FA1F486E
:101C8000B43000F05DFA1D48C83000F059FA1B4826
:101C9000DC3000F055FA19488C3060601430A060D8
:101CA00005E02068E96AC06A884200D82560E06AD9
:101CB000401CE062E96A0120A26988401043A061EB
:101CC00001EB810007EB8000291D00F05FFA00F0B6
:101CD00089FAE06900280CD02068E96AC06A884265
:101CE00007D207494FF080500860BFF34F8FBFF312
:101CF0006F8FBDE8F08100002000002090030020DD
:101D000004ED00E02DE9F041856B174604460026FE
:101D1000026C82B1C7B1E068FEF7E3FAE168206CBB
:101D2000091AE1602268914202D2A168081AE060B3
:101D3000022F16D017E02068A8B9A06800F0B0FE06
:101D400006460020A0600EE06068FEF7CAFA216C2B
:101D5000606808446060A168884204D320686060BD
:101D600001E005B16D1E6D1CA5633046BDE8F08134
:101D700010B5044690F8510058B101280CD0022843
:101D80000FD0502080F31188BFF34F8FBFF36F8FB8
:101D9000FEE7206B00F03AFA2046BDE8104000F064
:101DA00035BA10BD10484FF47051420706D0C01D1F
:101DB0000D4920F00700411AC1F570510B4A00236C
:101DC0000144C2E900030839103A21F0070111600B
:101DD0004B600B600B1AC0E9001393604FF000409A
:101DE0005360D06070470000800400206C00002029
:101DF000144E154CA6F1C8074FF08058DFF84C90F0
:101E000012E000BF00F0CEF9F068C568281D00F0B0
:101E100079F92069401E2061E068401EE06000F012
:101E2000E1F92846FFF7A4FFE0680028EAD1386806
:101E30000128F9D9C9F80080BFF34F8FBFF36F8F26
:101E4000F2E70000580400202000002004ED00E02C
:101E50000346009829B10260C0E90F31012100F06A
:101E6000C9BB0060F8E72DE9F0479A46DDE909842F
:101E700081466FF00303206B03EB82021044089E3F
:101E800020F00707780707D0502080F31188BFF3B0
:101E90004F8FBFF36F8FFEE7002561B1002023183D
:101EA0000A5C83F834200A5C12B1401C1028F6D377
:101EB00084F8435001E084F83450072E00D30626FE
:101EC000E662C4E91165201D00F045F904F118002F
:101ED00000F041F92461C6F107006462A061E56485
:101EE00084F8505052464946384600F0F5F82060D4
:101EF000B8F1000F01D0C8F80040BDE8F08700003D
:101F000030B5114900E011460A688242FBD34B68A4
:101F10005C18844203D1406818444860084643680E
:101F20001C18944209D1084C103C2468A24209D0E4
:101F300052681A4442600A6812680260814200D006
:101F4000086030BD0460F9E76C0000200648416875
:101F5000096829B14168C968C9684968016370475F
:101F60004FF0FF31FAE700002000002008484068E9
:101F7000401C4FF0500080F3118804D0BFF34F8F06
:101F8000BFF36F8FFEE7BFF34F8FBFF36F8FFEE797
:101F9000740000202DE9F041044600F003F994F9A3
:101FA000455004F1240609E0606A48B1304600F06B
:101FB000C3FD08B100F0C2F96D1E6DB2002DF3DC57
:101FC0004FF0FF3684F8456000F00CF900F0EAF8B5
:101FD00094F9445004F1100709E0206948B13846EB
:101FE00000F0AAFD08B100F0A9F96D1E6DB2002D38
:101FF000F3DC84F84460BDE8F04100F0F3B8000081
:102000002DE9F0410546002700F0ECF9314E30682B
:1020100008B9FFF7C7FEF06805424BD1C5B30835D4
:1020200068070ED005F00700C0F1080005446807F6
:1020300007D0502080F31188BFF34F8FBFF36F8F0D
:10204000FEE72DB37068854234D82248103001462F
:102050000C6801E020460C466168A94202D2216862
:102060000029F7D131688C4224D0076821680160CB
:1020700060680837411B10290FD96019420708D042
:10208000502080F31188BFF34F8FBFF36F8FFEE7AF
:1020900010E041606560FFF733FF61687068401AC7
:1020A0007060B268904200D2B060F06801430020D6
:1020B000C4E9000100F07AFD780707D0502080F3D2
:1020C0001188BFF34F8FBFF36F8FFEE73846BDE82F
:1020D000F08100005C00002010B5031F4FF08074F9
:1020E0001C601B1F21F001011960191F044B0B60BC
:1020F00014390A60091F6FF0020244380A6010BDEB
:102100006D1F0008D0E9013201699A60D0E901230E
:102110005A604A68824201D182684A6000220261A4
:102120000868401E0860086870470000034B0360A1
:1021300003F1540008608020106070478000002088
:1021400000F108014FF0FF32C0E90112C1600161E6
:1021500000210160704700210161704730B50B68B4
:102160005A1C02D000F1080202E0026904E0224693
:10217000546825689D42FAD953684B6099608A601B
:10218000516008610168491C016030BD42684A60C5
:1021900093688B6093685960916008610168491C7D
:1021A00001607047502080F31188BFF34F8FBFF359
:1021B0006F8F0A494868401C486001280CD10848C4
:1021C000006810F0FF0F07D0502080F31188BFF394
:1021D0004F8FBFF36F8FFEE7704700007400002041
:1021E00004ED00E00849486828B1401E486001D16C
:1021F00080F311887047502080F31188BFF34F8F10
:10220000BFF36F8FFEE700007400002070B5002858
:1022100027D0144DA0F108046168E868014207D195
:10222000502080F31188BFF34F8FBFF36F8FFEE70D
:1022300022683AB1502080F31188BFF34F8FBFF36B
:102240006F8FFEE78143616000F0CCF860686968D9
:10225000084468602046FFF753FEBDE8704000F078
:10226000A5BC70BD5C0000204FF0E02000210161A2
:10227000816105494FF47A720968B1FBF2F1491E98
:1022800041610721016170471C00002010B5FDF776
:10229000E1FF114910280ED300F1E02090F8F0037F
:1022A0000A78904207D2502080F31188BFF34F8FF5
:1022B000BFF36F8FFEE709480068896800F4E060AB
:1022C000884207D9502080F31188BFF34F8FBFF3A6
:1022D0006F8FFEE710BD0000740000200CED00E0E1
:1022E00010B5020014D00F48806B38B1502080F335
:1022F0001188BFF34F8FBFF36F8FFEE700F072F8C6
:1023000000211046FFF75EFC00F050FC002807D1CA
:1023100005494FF080500860BFF34F8FBFF36F8FB8
:1023200010BD00002000002004ED00E002498A6A90
:102330000260496941607047200000200149012086
:10234000486270472000002010B50C4650B1094982
:1023500009681831FFF702FF2046BDE8104001214F
:10236000FFF730BC502080F31188BFF34F8FBFF3CD
:102370006F8FFEE72000002010B586B00024039484
:1023800005AA04A903A80494FFF7D0FEDDE9030120
:102390000094CDE9011000230EA11048059A00F029
:1023A000E2FA0F490028486311D0502080F31188C9
:1023B000BFF34F8FBFF36F8F4FF0FF3008630120E3
:1023C000C8614C6106B0BDE8104000F041B806B0ED
:1023D00010BD000049444C4500000000F11D0008FC
:1023E000200000200248816B491C81637047000077
:1023F000200000201448816B11B101214162704717
:10240000002141628169B1FA81F1C1F11F0101EB43
:1024100081020E4951F822306BB101EB820101F1CA
:1024200008034A6852684A609A4201D152684A6079
:10243000D16801607047502080F31188BFF34F8F3F
:10244000BFF36F8FFEE70000200000209003002004
:102450001CB537480168374A914207D1502080F3B4
:102460001188BFF34F8FBFF36F8FFEE700683149CC
:10247000491E884207D1502080F31188BFF34F8F47
:10248000BFF36F8FFEE72C4908780190FF2008709A
:1024900008788DF800009DF800009DF8002000F0FD
:1024A000F000904207D0502080F31188BFF34F8F87
:1024B000BFF36F8FFEE79DF80000204B00F0500047
:1024C00018700720986005E09DF8002052008DF8F4
:1024D0000020401E9DF800201206F5D498600328C5
:1024E00007D0502080F31188BFF34F8FBFF36F8F59
:1024F000FEE74FF440709860019808700C48203057
:10250000016841F470010160016841F070410160AF
:10251000FFF7AAFE00205860FDF764FE0848016836
:1025200041F040410160FDF749FE00201CBD000064
:1025300000ED00E071C20F4100E400E074000020F3
:1025400034EF00E0F8B517460E46050014D0DEB1B2
:1025500005FB06F04830FFF753FD04000AD00020C9
:1025600084F8460004F148023B4631462846009470
:10257000FFF76EFC2046F8BD502080F31188BFF3B2
:102580004F8FBFF36F8FFEE70020E3E738B5049D60
:1025900018B153B1CAB181B120E0502080F3118845
:1025A000BFF34F8FBFF36F8FFEE7502080F311888A
:1025B000BFF34F8FBFF36F8FFEE7502080F311887A
:1025C000BFF34F8FBFF36F8FFEE739B1502080F319
:1025D0001188BFF34F8FBFF36F8FFEE748241C466F
:1025E000012384F846302B460094FFF731FC204647
:1025F00038BD000070B50D46040025D0FFF7D2FDB0
:10260000D4E90F20216802FB0011A1600021A16321
:10261000216861600A46D4E90F01401E00FB0121D8
:10262000E16021464FF0FF3001F8440F487004F19B
:1026300010008DB1FFF784FD04F12400FFF780FD49
:10264000FFF7D0FD012070BD502080F31188BFF34B
:102650004F8FBFF36F8FFEE721690029F0D000F0A4
:102660006BFA0028ECD004494FF080500860BFF3AB
:102670004F8FBFF36F8FE3E704ED00E02DE9FF47D5
:1026800082B01D468A464FF00008040003D0BAF11C
:10269000000F08D011E0502080F31188BFF34F8F56
:1026A000BFF36F8FFEE7206C38B1502080F31188A4
:1026B000BFF34F8FBFF36F8FFEE7022D0AD1E06BA0
:1026C000012807D0502080F31188BFF34F8FBFF34C
:1026D0006F8FFEE700F072F93F4F4FF000094FF0A7
:1026E000805648B9049838B1502080F31188BFF360
:1026F0004F8FBFF36F8FFEE7FFF754FDA06BE16BC9
:10270000884207D3022D05D00498D0B1B8F1000F4C
:102710001AD01EE02A4651462046FFF7F3FA616AB6
:1027200019B104F1240000F007FA20B13E60BFF3B4
:102730004F8FBFF36F8FFFF755FD012006B0BDE847
:10274000F087FFF74FFD22E06846FFF7EFFD4FF0FF
:102750000108FFF747FDFFF745FEFFF723FD94F95A
:102760004400401C01D184F8449094F94500401C79
:1027700001D184F84590FFF735FD04A9684600F0C3
:102780008BF830B12046FFF705FC00F00FFA00206F
:10279000D4E7FFF707FDA06BE16B884213D1FFF789
:1027A00021FD04F110000499FFF7CEFD2046FFF74C
:1027B000F1FB00F0FBF900289ED13E60BFF34F8F84
:1027C000BFF36F8F98E7FFF70DFD2046FFF7E2FBA1
:1027D00000F0ECF990E7000004ED00E02DE9F0478F
:1027E0001F4690468946040003D0B9F1000F08D077
:1027F00011E0502080F31188BFF34F8FBFF36F8F2C
:10280000FEE7206C38B1502080F31188BFF34F8F62
:10281000BFF36F8FFEE7022F0AD1E06B012807D0CC
:10282000502080F31188BFF34F8FBFF36F8FFEE707
:10283000FFF72CFD5020EFF3118680F31188BFF3D2
:102840004F8FBFF36F8FA06BE16B884206D3022FCF
:1028500004D0002086F31188BDE8F08794F9455034
:102860003A4649462046FFF74DFA681C04D06D1CD5
:1028700084F845500120EDE7606A0028FAD004F1A1
:10288000240000F059F90028F4D0B8F1000FF1D07D
:102890000121C8F80010EDE72DE9F0410C460500D4
:1028A00011D0C4B1FFF77EFC174B5A696E682068DF
:1028B000911B471C17D02F689B6A9F4219D09642E4
:1028C00017D8012410E0502080F31188BFF34F8FF8
:1028D000BFF36F8FFEE7502080F31188BFF34F8F57
:1028E000BFF36F8FFEE70024FFF77CFC2046BDE8B6
:1028F000F081884205D9401A20602846FFF716FD6E
:10290000F1E700202060DCE7200000202DE9FF5FD8
:102910008346DDE90E87994616468A469000FFF702
:102920006FFB05001CD05420FFF76AFB040014D095
:102930000020256384F85100CDE90240CDE90087ED
:102940004B46324651465846FFF78DFA2046FFF770
:1029500071F9012004B0BDE8F09F2846FFF756FC4E
:102960004FF0FF30F6E7F0B585B0DDE90B640A9D66
:10297000A6B1DCB1542700972663022684F8516083
:10298000002604AFCDE90246CDE90057FFF76BFA08
:102990002046FFF74FF9049805B0F0BD502080F3B2
:1029A0001188BFF34F8FBFF36F8FFEE7502080F386
:1029B0001188BFF34F8FBFF36F8FFEE70548C169E2
:1029C00019B1806B18B100207047012070470220B8
:1029D00070470000200000202DE9F0412E4C002718
:1029E000A06B40B1206A401C2062606A00B10127E0
:1029F0003846BDE8F0816669761C666113D160686F
:102A0000006838B1502080F31188BFF34F8FBFF3B7
:102A10006F8FFEE76068A1686160A060A06A401CDB
:102A2000A062FFF793FA206BDFF87080864209D32B
:102A30006068006880B16068C068C5686868864280
:102A40000DD220632068C06A00EB800158F8210095
:102A50000128CAD90127C8E74FF0FF30F1E7281D48
:102A6000FFF750FBA86A18B105F11800FFF74AFB01
:102A7000E86A0121A26981401143A16100EB800154
:102A800008EB8100291DFFF781FBE86A2168C96A0C
:102A90008842CDD30127CBE72000002090030020FF
:102AA00070B504004FF0000140D0214D28688442E9
:102AB00007D0502080F31188BFF34F8FBFF36F8F83
:102AC000FEE7A06C38B1401EA064636CE26A9A42D3
:102AD0002CD040B12AE0502080F31188BFF34F8FF3
:102AE000BFF36F8FFEE7201DFFF70CFB114A01219A
:102AF00050B9E06A00EB800352F8233023B9AB6988
:102B000001FA00F08343AB61606CE062C0F1070042
:102B1000A061E06AAB6981401943A96100EB8000C4
:102B200002EB8000211DFFF731FB0121084670BD3B
:102B300020000020900300202DE9F041C068C46807
:102B4000ACB104F118000746FFF7DCFA154DA86B8D
:102B50000126A0B139461448FFF718FBE06A29683E
:102B6000C96A88421CD901206E62BDE8F0815020FC
:102B700080F31188BFF34F8FBFF36F8FFEE7201DE7
:102B8000FFF7C0FAE16AAA6906FA01F01043A861EA
:102B900001EB81000449B43901EB8000211DDBE722
:102BA0000020E2E720000020440400202DE9F04747
:102BB0002C4D00242746A86B38B1FFF7F3FAA86B19
:102BC000401EA863A86B40B146E0502080F31188F6
:102BD000BFF34F8FBFF36F8FFEE72969224E0120AD
:102BE000D1B3A6F1B40980463068E8B1F068C46892
:102BF00004F11800FFF786FA201DFFF783FAE06A58
:102C0000AA6908FA00F11143A96100EB800109EB00
:102C10008100211DFFF7BAFAE06A2968C96A884273
:102C2000E2D3C5F82480DFE70CB1FFF78FF92C6AF7
:102C300044B14646FFF7D0FE00B16E62641EF9D182
:102C400000202862686A38B10849012738070860FF
:102C5000BFF34F8FBFF36F8FFFF7C4FA3846BDE85D
:102C6000F0870000200000204404002004ED00E074
:102C70001000000024000000000000001000000010
:102C8000040000000000000000000000DC2C000830
:102C90006117000803000000000000008000000031
:102CA0000000000000000000E02C00088917000868
:102CB0000200000000000000800000000000000092
:102CC00000000000000000000000000001020304FA
:102CD0000607080900000000010203044D534700E5
:102CE00052554E00042D0008000000208000000016
:102CF000AA190008842D000880000020004400006C
:102D0000BA190008000000000000000000000000E8
:102D100000000000010000001000000000000000A2
:102D20000024F4000000000000000000000000008B
:102D30000000000000000000000000000000000093
:102D40000000000000000000000000000000000083
:102D50000000000000000000000000000000000073
:102D60000000000000000000000000000000000063
:102D7000000000000000000000000000AAAAAAAAAB
:042D8000000000004F
:040000050800018965
:00000001FF
