:020000040800F2
:10000000E84500205D020008AF2300080320000837
:10001000AD230008FD060008912C00080000000038
:100020000000000000000000000000009D0100082A
:10003000A107000800000000F901000835270008AA
:1000400077020008770200087702000877020008AC
:10005000770200087702000877020008770200089C
:10006000770200087702000877020008770200088C
:10007000770200087702000877020008770200087C
:100080007702000877020008770200084907000895
:100090003D07000877020008770200087702000891
:1000A000770200087702000877020008770200084C
:1000B000770200087702000877020008770200083C
:1000C000770200087702000877020008770200082C
:1000D0007702000877020008852C000877020008E4
:1000E000770200087702000877020008770200080C
:1000F00077020008770200087702000877020008FC
:1001000077020008770200087702000877020008EB
:100110007702000877020008052800087702000827
:1001200077020008770200087702000877020008CB
:1001300077020008770200087702000877020008BB
:1001400077020008770200087702000877020008AB
:10015000770200087702000877020008770200089B
:10016000770200087702000877020008770200088B
:1001700077020008770200087702000800000000FC
:100180007702000877020008DFF80CD000F0A4FA2C
:1001900000480047092D0008E84500202C4B19684D
:1001A0000868B0E8F04F80F30988BFF36F8F4FF015
:1001B000000080F3118870470000000008480068C4
:1001C000006880F308884FF0000080F3148862B65E
:1001D00061B6BFF34F8FBFF36F8F00DF00BF00BF6B
:1001E00008ED00E0DFF80C00016841F470010160E7
:1001F000704700BF88ED00E0EFF30980BFF36F8F19
:10020000134B1A681EF0100F08BF20ED108A20E96A
:10021000F04F106009B44FF0500080F31188BFF325
:100220004F8FBFF36F8F03F02DFB4FF0000080F373
:10023000118809BC19680868B0E8F04F1EF0100F6B
:1002400008BFB0EC108A80F30988BFF36F8F704746
:1002500058000020EFF305807047000006488047F3
:1002600006480047FEE7FEE7FEE7FEE7FEE7FEE79B
:10027000FEE7FEE7FEE7FEE7E92700088901000840
:100280002DE9F05F0546002092469B4688460646CB
:10029000814640241BE0284641464746224600F05E
:1002A0009CF953465A46C01A914110D3114618463C
:1002B000224600F083F92D1A67EB01084F462246CB
:1002C0000120002100F07AF917EB00094E41201EB1
:1002D000A4F10104DFDC484631462A464346BDE826
:1002E000F09F40EA01039B0703D009E008C9121FF1
:1002F00008C0042AFAD203E011F8013B00F8013BE0
:10030000521EF9D27047D2B201E000F8012B491E0B
:10031000FBD270470022F6E710B513460A460446A2
:100320001946FFF7F0FF204610BD2DE9FE4F80462D
:1003300081EA0300C00F0C46009021F0004123F039
:100340000045B8EB0200A94105D24046214690463F
:100350001C460B46024623F00040104347D0270DB1
:10036000C7F30A00C3F30A510290401A01904028D3
:100370006BDAC3F3130040F4801B0098924620B15F
:100380000023D2EB030A63EB0B0B01985946C0F133
:100390004002504600F012F906460D4650465946B6
:1003A000019A00F02AF910EB08006141002487EA65
:1003B000115284EAE7731A4340D0009A62B3019A5B
:1003C000012A4FEA075215DC001B61EB02014FF0D6
:1003D000004202EA0752CDE90042001C41F58011BB
:1003E00032462B4600F02AF903B0BDE8F08F4046B4
:1003F0002146F9E7001B61EB0201001C41F5801367
:1004000000185B412018A2F5001747EB030140EAF2
:10041000D570B6196D4111E06D084FEA360645EA10
:10042000C0754FEA0752001B61EB0201001C41F549
:10043000801149084FEA30000019514132462B46DD
:1004400003B0BDE8F04F00F0EAB800980122400088
:100450000023D0EB020263EBE073009821464FEAE1
:10046000E074B8EB000061EB0401E9E783F00043BE
:100470005BE781F0004158E72DE9FE4F81EA030474
:1004800004F0004421F0004100944FF0000B23F0F1
:10049000004350EA01045ED052EA03045BD0C3F388
:1004A0000A54C1F30A552C44A4F2F3340194A0FB7E
:1004B0000254C1F3130141F48011C3F3130343F455
:1004C000801301FB024400FB034E840A970A44EAAE
:1004D000815447EA8357A4FB076802958D0A05FB00
:1004E00007854FEA932C04FB0C542705029D4FEA25
:1004F000065847EA1637B5EB08056EEB070C870E72
:10050000920E47EA811742EA8312A7FB0201B6EB7B
:100510000B0164EB00042B0D43EA0C335E1844EB33
:100520001C50DA465146E7FB0201C5F313044FEABB
:100530000B3343EA14534FEA0432019C43EA0603A7
:10054000A4F10C040294009CCDE900B400F076F80C
:1005500003B0BDE8F08F00200146F9E70EB5C10FEA
:1005600080EAE0700844CA07002140F233438DE876
:100570000E000A460B4600F061F803B000BD70B5EE
:10058000C1F30A5201F000450024C1F3130140F207
:10059000FF3341F480119A4201DA002070BD40F22D
:1005A00033439A42A2F2334203DC524200F015F880
:1005B00000E090402C43F1D0404270BD202A04DB83
:1005C000203A00FA02F1002070479140C2F1200366
:1005D00020FA03F3194390407047202A04DB203AA5
:1005E00021FA02F00021704721FA02F3D040C2F153
:1005F00020029140084319467047202A06DBCB179A
:10060000203A41FA02F043EAE07306E041FA02F3CD
:10061000D040C2F12002914008431946704710B5FE
:10062000141E73F1000408DA401C41F10001921815
:100630005B411A4301D120F0010010BD2DE9F04DBE
:1006400092469B4611B1B1FA81F202E0B0FA80F213
:1006500020329046FFF7B2FF04460F4640EA0A00F8
:1006600041EA0B0153465A46084313D0114653EA58
:10067000010019D0C8F140025046FFF7AEFF054611
:100680000E46504659464246FFF798FF084305D0AC
:10069000012004E020463946BDE8F08D00200543E6
:1006A00046EAE0762C4337430A986305E40AA0EB58
:1006B00008000022FD0A44EA47540A3002D500200F
:1006C0000146E9E7010510196941DDE9084500190E
:1006D0006941BDE8F04DA2E7064C074D06E0E06831
:1006E00040F0010394E8070098471034AC42F6D379
:1006F000FFF74EFDD0410008F0410008FEE7000082
:1007000000B58BB00020012103900490CDE90601D3
:10071000CDE90810059000900190029069460648C6
:1007200000F082F9044800F061FC0221024800F068
:1007300005F90BB000BD00000C030020014800F0DB
:100740006EBA00000C030020014800F068BA0000F7
:100750000C03002000B587B00A46009000200290EC
:1007600003900820049001236946024800F0F8F83D
:1007700007B000BD0C03002030B50468256825F4DF
:1007800080252560046863608368402B036803D07C
:1007900099600068C26030BD9A600068C16030BD79
:1007A000704770472DE9F041244C01254FF4D9766C
:1007B000A07918B100227F21202002E043220021ED
:1007C000602001F021FE6D1CB542F1DD1C481D4E7C
:1007D0001E4F006830601C48012500883880A079D1
:1007E00018B100227F21202002E043220021602056
:1007F00001F00AFE6D1C642DF1DD1548012500682D
:100800003060144800883880A07918B100227F2118
:10081000202002E043220021602001F0F5FD6D1C44
:10082000642DF1DD6078401CC0B26070052803D0F3
:10083000BDE8F04100F010B8BDE8F08120000020D4
:10084000480000204400002050000020400000200C
:100850004C000020520000202DE9F0432C48018973
:100860004161002181814181417805294DD0817804
:1008700000F10E02565C491CC9B206708170032952
:1008800043D024482449254A254B264C264D274F42
:100890004FF4807C4FF40079062E36D2DFE806F064
:1008A00035030C15202A0860106018602020208075
:1008B00040202880802027E0086010601860042015
:1008C00020800820288010201EE019480860106051
:1008D00018604FF40050208040002880400013E052
:1008E000086010601860A4F800C0A5F800904FF4EC
:1008F000806009E00F48086010600F481860A4F895
:1009000000C0A5F8009001203880BDE8F083000009
:100910002000002000000240440000204800002089
:100920004C00002040000020500000205200002019
:10093000000C0240000402400010024090F8202009
:10094000012A07D0022A05D0416A41F48021416280
:1009500001207047006842690A43426100207047E5
:10096000F0B590F820500468A468012D05D0022D40
:1009700003D0416A41F4802153E014F0406F01D16B
:10098000E5004BD5C4F30164022C03D9416A41F45C
:10099000000146E00125A5401D608D684FF4C0733D
:1009A0009DB1CE6835434E6845EAC605066803EB3F
:1009B0000417F5514FF4C275076805EB04150E696D
:1009C0007E51097D012905D009E00E88CD6845EAF0
:1009D0004655EBE701684E5946F480764E51117941
:1009E000D2F805504FF4C67641EA0525016806EBBA
:1009F00004168D511178D2F801204FF4C47541EAE4
:100A00000221026805EB04155151006803EB041143
:100A1000425842F0010242500020F0BD416A41F4C8
:100A2000001141620120F0BD10B590F82020012A8C
:100A300007D0022A05D0416A41F480214162012099
:100A400010BD3B48D0F8002242F00102C0F800225D
:100A5000D0F8002222F47C52C0F80022D0F8002204
:100A60004B6A42EA0322C0F800220A7D02F01F030B
:100A700001229A40D0F81C329343C0F81C32CB6953
:100A8000B3B9D0F80C329343C0F80C328C894B6860
:100A900064F31F434C6900EBC404C4F840320C8972
:100AA0000B6864F31F434C6900EBC404C4F8443280
:100AB000CB69012B16D1D0F80C321343C0F80C329D
:100AC0000C884B6864F31F434C6900EBC404C4F802
:100AD00040320C89CB6864F31F434C6900EBC404BB
:100AE000C4F844328B69002BD0F804320ED0134383
:100AF000C0F804320B69002BD0F8143208D013432D
:100B0000C0F81432096A012904D008E09343EFE7E2
:100B10009343F5E7D0F81C121143C0F81C12D0F82B
:100B2000001221F00101C0F80012002010BD0000E9
:100B300000640040704730B590F82040012C05D08B
:100B4000022C03D0416A41F480215DE00468002951
:100B500055D02469A40754D04FF4D874056804EB29
:100B600001142D5915F00405956005682D594ED0D6
:100B7000ED08556005682C5904F00204D4604FF468
:100B8000DA74056804EB01142D5905F00F051561A1
:100B900005682D59C5F30725956105682C59240C66
:100BA00054614FF4DC72046802EB0112A4581C700B
:100BB0000468A458240A5C700468A458240C9C702F
:100BC0000468A258120EDA704FF4DE72046802EB69
:100BD0000112A4581C710468A458240A5C710468AA
:100BE000A458240C9C710468A258120EDA71006893
:100BF00081B1016941F020010161002030BDE4684C
:100C0000A8E7416A41F400114162012030BD6D0D39
:100C10001560AFE7C16841F02001C160EDE72DE943
:100C2000F05F0546006800244669D0F804908768A4
:100C3000D0F80CB0D0F810A0D0F81880F10748D048
:100C4000F90714D001218160B80703D5284600F0C8
:100C5000FAF90CE0780702D54FF4006407E0380792
:100C600002D54FF4805402E0284600F0EBF9F80575
:100C700016D529684FF480708860B80503D52846DA
:100C800000F0E3F90CE0780502D544F4005407E0E5
:100C9000380502D544F4804402E0284600F0D4F937
:100CA000F80316D529684FF480308860B80303D55F
:100CB000284600F0CCF90CE0780302D544F4004457
:100CC00007E0380302D544F4803402E0284600F0FF
:100CD000BDF9300707D55FEACB6004D5296810203D
:100CE00044F40074C86070074FF0080707D55FEA46
:100CF0000B7004D52868C760284600F061F9B0077A
:100D000006D52868C068800702D0284600F05AF946
:100D1000700607D55FEACA6004D52968102044F43C
:100D200080640861B00607D55FEA0A7004D52868B8
:100D30000761284600F056F9F00606D528680069D4
:100D4000800702D0284600F04EF9B00308D55FEACC
:100D5000C96005D5296810204860284600F044F98C
:100D6000F00307D55FEA097004D528684760284674
:100D700000F06EF9300446D55FEA497040D5F005C1
:100D800004D55FEAC87001D044F00104B00504D571
:100D90005FEA887001D544F00204700504D55FEA6B
:100DA000487001D544F00404300529D518F0700FBF
:100DB00026D008F07000402815D006DC102809D095
:100DC00020280AD0302816D10AE050280ED06028FA
:100DD00011D10EE044F008040DE044F010040AE0E4
:100DE00044F0200407E044F0400404E044F08004B0
:100DF00001E044F480742868816921F07001816108
:100E0000296804204860002C05D0686A2043686285
:100E10002846FFF78FFEBDE8F09F70B5040003D0B1
:100E200094F8200010B104E0012070BD204600F0CD
:100E300081F82068016821F00201016000F046FAA3
:100E40000546052604E000F041FA401B0A2811D8A7
:100E5000206840688007F6D42068016841F00101ED
:100E6000016000F033FA05460BE000F02FFA401B5A
:100E70000A2806D9606A40F40030606284F8206075
:100E8000D2E720684068C007EFD0207E01282068A4
:100E900001683DD021F080010160607E012820685A
:100EA000016838D021F040010160A07E012820684F
:100EB000016833D021F020010160E07E0128206824
:100EC00001682ED041F010010160207F01282068C8
:100ED000016829D021F008010160607F01282068A5
:100EE000016824D021F004010160D4E90201084323
:100EF000D4E90412114308436168491E084321687C
:100F0000C86100206062012084F82000002070BDCC
:100F100041F08001C0E741F04001C5E741F0200108
:100F2000CAE721F01001CFE741F00801D4E741F012
:100F30000401D9E710B586B0044614216846FFF7CE
:100F4000E9F91C492068884231D11B480021026818
:100F500042F000720260006800F0007005901648D0
:100F60001038026842F001020260006800F00100DF
:100F700005904FF4C05000900220CDE901010320FC
:100F800003900920049069460C4800F0BDF8002247
:100F90001146132000F022FA132000F011FA00226B
:100FA0001146142000F01AFA142000F009FA06B0D5
:100FB00010BD0000006400404038024000000240C4
:100FC0007047000000B5064A016889B0914204D11B
:100FD00007AB6A460021FFF7AEFD09B000BD000077
:100FE00000640040704770477047000070B50446C9
:100FF00090F82000012804D0606A40F4002060626C
:1010000018E0022084F820002068016821F0010126
:10101000016000F05BF905460EE000BF00F056F9F4
:10102000401B0A2808D9606A40F40030606205203D
:1010300084F82000012070BD20684068C007EDD111
:10104000606270BD70477047704770477047704767
:10105000704790F83510022903D0802141650120A6
:101060007047052180F835100068016821F0010102
:101070000160002070472DE9F0410446866D90F82C
:101080003400002501280DD0012084F8340094F8A4
:1010900035700020012F07D084F83400022528463F
:1010A000BDE8F0810220FBE7022784F83570606517
:1010B0002046FFF761FB94F85C103F208840B06049
:1010C0002068016841F016010160206C20B12068A1
:1010D000016841F0080101602068016841F00101E8
:1010E0000160DCE770B5044600F0F0F80546601CCE
:1010F00002D004480078044400F0E8F8401BA04205
:10110000FAD370BD100000202DE9F84F00224FF0F7
:10111000010803254FF00F0E0B6808FA02F4234074
:10112000A3426ED14E68012E05D0022E03D0112E9F
:1011300001D0122E12D186684FEA420C05FA0CF744
:10114000BE43CF6807FA0CF7374387604668A6436B
:101150000C79C4F30014944034434460C6685700CB
:1011600005FA07FC8C6826EA0C06BC403443C460D0
:101170004C68022C01D0122C13D1D40800EB84044B
:10118000A346D4F8209054074FEAD46A0EFA0AF620
:1011900029EA06090E6906FA0AF646EA0906CBF8B4
:1011A000206006680C7926EA0C0604F00304BC40B3
:1011B000344304604C68E40065D5364C266846F438
:1011C00080462660246822F0030604F480440094DC
:1011D000314C3444A446D4F808489607370F0EFA29
:1011E00007F6B4432D4EB04201D1002624E02C4E28
:1011F000B04201D101261FE02A4EB04202D10226A0
:101200001AE040E0284EB04201D1032614E0274EF8
:10121000B04201D104260FE0254EB04201D105268F
:101220000AE0244EB04201D1062605E0224EB0422B
:1012300001D1072600E00826BE402643CCF8086806
:101240001E4E34684F689C43FF0300D51C43346036
:101250001A4C241D26684F689E43BF0300D51E43C9
:101260002660164E083634684F689C43FF0200D54E
:101270001C433460114E0C3634684F689C43BF02E7
:1012800000D51C433460521C102AFFF445AFBDE862
:10129000F88F000044380240003001400000024056
:1012A0000004024000080240000C0240001002400E
:1012B0000014024000180240001C0240003C0140A3
:1012C0000AB1816170470904FBE7000001488068AA
:1012D0007047000010000020024881680278114425
:1012E00081607047100000200B4810B5016841F480
:1012F00000710160016841F480610160016841F49E
:1013000080710160032000F089F8002000F006F8E9
:1013100000F03EF8002010BD003C024010B5014630
:1013200088B00022362000F059F8362000F048F846
:1013300013480024016841F010010160006805A90C
:1013400000F010000690684600F014F900F032F941
:101350000C494000B0FBF1F10C480B4A491E0260F9
:1013600040F2E732C0E90324C0E9011400F06CFB4D
:1013700010B1012008B010BD044800F0A7FBF9E748
:101380004038024040420F0000100040C8030020D7
:101390000A4808B5016841F480410160006800F422
:1013A000804000900548001F016841F080510160B5
:1013B000006800F08050009008BD000044380240F2
:1013C000002809DB00F01F02012191404009800044
:1013D00000F1E020C0F8001170470000F0B40E4B9F
:1013E0001B680C46C3F30223C3F10705042D00D983
:1013F0000425191D072901D2002300E0DB1E012668
:1014000006FA05F1491E214099409E40761E16407D
:101410003143F0BC01F03DBC0CED00E0064900F0AA
:10142000070208684FF6FF03184040EA0220034A0B
:1014300010430860704700000CED00E00000FA0562
:101440002DE9F0470E46050065D0DFF81481D8F885
:101450000000F7B200F00F00B04207D288F8007029
:10146000D8F8000000F00F00B04254D128683D4C7D
:10147000810712D5400703D5206840F4E050206072
:101480002878000703D5206840F460402060206879
:10149000A96820F0F000084320602878C0072DD00C
:1014A000304968680839012812D0022813D003286F
:1014B00011D00968890700292DDA216821F003017C
:1014C00001432160FFF702FF814641F2883A0EE0B6
:1014D00009688903EFE709688901ECE7FFF7F6FE81
:1014E000A0EB0901514502D90320BDE8F08720682F
:1014F000696800F00C00B0EB810FEFD1D8F8001054
:10150000404601F00F01B14207D90770006800F0B2
:101510000F00B04201D00120E7E72878400705D549
:101520002068E96820F4E05008432060287800072C
:1015300006D52068296920F4604040EAC100206097
:1015400000F058F82168084AC1F30311515CC84003
:101550000649086006480068FFF7E0FE0020C4E77F
:10156000003C024008380240B04100081C00002046
:10157000140000200F2202600C4A136803F00303DA
:101580004360136803F0F0038360136803F4E053CF
:10159000C36012684FF4E05303EAD20202610448C8
:1015A000006800F00F000860704700000838024033
:1015B000003C02400448054900680968044AC1F338
:1015C0008221515CC84070471C000020083802404E
:1015D000C04100080448054900680968044AC1F38D
:1015E0004231515CC84070471C000020083802405E
:1015F000C0410008154810B5006810F00C021448EE
:1016000013D01449042A0FD0082A0ED10F4C241FDE
:101610002268236802F03F025B0207D52068C0F30E
:101620008810A0FB010106E0084610BD2168C1F347
:101630008811A1FB00010023FEF722FE2168C1F3FF
:101640000141491C4900B0FBF1F010BD08380240CF
:101650000024F40040787D012DE9F84F04006ED09D
:101660002078DFF83C93C007A9F104054AD009F1BE
:1016700004000168C1F38101012908D00068C0F3AA
:10168000810002280AD1D9F80000400206D5286856
:10169000800337D560680028E1D033E06068B0F59A
:1016A000803F10D0B0F5A02F286810D020F48030F3
:1016B0002860286820F4802028606068A8B1FFF7BF
:1016C00005FE06460DE0286840F48030F4E740F45B
:1016D00080202860F7E700BFFFF7F8FD801B642833
:1016E00073D828688003F7D50CE0FFF7EFFD0646B6
:1016F00005E000BFFFF7EAFD801B6428F0D82868EA
:101700008003F7D42078DFF89C8280074FF0000A2E
:101710003ED5A348001D016811F00C0F08D00068E9
:10172000C0F3810002280BD1D9F80000400207D491
:101730002868800716D5E068012800D112E02BE167
:10174000E068B8B10120C8F80000FFF7BFFD064609
:1017500005E000BFFFF7BAFD801B0228C0D828684B
:101760008007F7D52868216920F0F80040EAC10019
:1017700028600DE0C8F800A0FFF7A8FD064604E0C9
:10178000FFF7A4FD801B02281FD828688007F7D424
:101790002078000722D5824E83486169703671B186
:1017A00001210160FFF792FD074604E0FFF78EFD7F
:1017B000C01B022809D830688007F7D50EE0C0F8B2
:1017C00000A0FFF783FD074605E082E0FFF77EFDFE
:1017D000C01B02287DD830688007F7D420784007E6
:1017E00068D5DFF8BCB100270BF13C0BDBF800003B
:1017F000C0000BD4DBF8001041F08051CBF8001092
:10180000DBF80000012700F080500090674E306840
:10181000C00510D4306840F480703060FFF756FD8A
:10182000009005E0FFF752FD0099401A022850D8B9
:101830003068C005F6D55A4EA0686C3601280FD026
:101840000528306810D020F001003060306820F0AA
:1018500004003060A068B8B1FFF738FD00900FE0D9
:10186000306840F00100F4E740F004003060F7E732
:10187000FFF72CFD0099411A41F28830814266D869
:1018800030688007F4D50EE0FFF720FD009007E0F8
:10189000FFF71CFD0099411A41F28830814256D869
:1018A00030688007F4D42FB1DBF8001021F08051AC
:1018B000CBF80010A069C8B33949091D0968C1F304
:1018C000810102294AD00228504607D0C8F860009A
:1018D00000E03CE0FFF7FAFC04463BE04746C8F86E
:1018E0006000FFF7F3FC064605E000BFFFF7EEFCE3
:1018F000801B02282BD828688001F7D4D4E907017F
:101900000843A16A2A4A490802EB0141626A41EA96
:101910008211084394F82C1040EA0161C9F80010C4
:1019200001203866FFF7D2FC044606E036E000BF2F
:10193000FFF7CCFC001B022809D828688001F7D5E6
:101940002CE000BFFFF7C2FC001B022802D90320D5
:10195000BDE8F88F28688001F4D41FE00128F7D093
:10196000D9F80000E26900F48001914214D1226AA2
:1019700000F03F0191420FD147F6C071626A014009
:10198000914209D1A26A00F44031914204D1E16A46
:1019900000F07060884201D00120D9E70020D7E72D
:1019A0000438024000004742800E47420070004069
:1019B0000000FFFF7047704770B590F83C20012A87
:1019C00032D0012480F83C40022280F83D20036898
:1019D0005A689D6822F070060A6832435A60134BB9
:1019E00002689A4214D0B2F1804F11D0104B9A4243
:1019F0000ED0104B9A420BD00F4B9A4208D00F4B8F
:101A00009A4205D00E4B9A4202D00E4B9A4204D114
:101A1000496825F080031943916080F83D4000211A
:101A200080F83C10084670BD022070BD00000140E7
:101A30000004004000080040000C00400004014089
:101A4000004001400018004010B5040003D094F895
:101A50003D0010B107E0012010BD002084F83C00DB
:101A6000204600F00DF8022084F83D00211D20687A
:101A700000F0CEFE012084F83D00002010BD0000E3
:101A800008B500680649884208D10648016841F057
:101A900002010160006800F00200009008BD000033
:101AA0000004004040380240022180F83D100168E7
:101AB0008A6802F00702062A03D00A6842F001028F
:101AC0000A60012180F83D10002070470168CA6853
:101AD00042F00102CA600068816801F0070106292E
:101AE00003D0016841F0010101600020704702212C
:101AF00080F83D1001680A6A41F211131A4207D1B9
:101B00000A6A9B101A4203D10A6822F001020A6095
:101B1000012180F83D100020704770B5044690F810
:101B20003C00012817D0012584F83C50022084F89D
:101B30003D002068826822F0770222F47F428260B2
:101B40000868502830D00DDC20284DD005DC98B333
:101B500010283BD148E0022070BD302844D04028F6
:101B600034D139E0602828D0702806D0B0F5805FE5
:101B70002CD0B0F5005F29D10AE0CB68D1E9012172
:101B8000206800F0A9FE2068816841F0770109E033
:101B9000CB68D1E90121206800F09EFE20688168B1
:101BA00041F48041816011E0CA684968206800F012
:101BB000A5FE5021206807E016E0CA684968206841
:101BC00000F0ADFE6021206800F090FE84F83D50EA
:101BD000002084F83C0070BDCA684968206800F0A5
:101BE0008DFE40212068EFE7226801461046EBE7B2
:101BF000704770B50446006801694FF00005C9439D
:101C0000890715D4C168C943890711D4E91E016148
:101C100001202077206880698007204602D0FFF7E6
:101C2000E7FF04E000F098F8204600F096F82577EA
:101C300020680169C943490717D4C168C9434907E6
:101C400013D46FF0040101610220207720688069BD
:101C500010F4407F204602D0FFF7CAFF04E000F0F6
:101C60007BF8204600F079F8257720680169C943A0
:101C7000090716D4C168C943090712D46FF00801D7
:101C80000161042020772068C0698007204602D0C7
:101C9000FFF7AEFF04E000F05FF8204600F05DF8CB
:101CA000257720680169C943C90617D4C168C943AB
:101CB000C90613D46FF01001016108202077206855
:101CC000C06910F4407F204602D0FFF791FF04E086
:101CD00000F042F8204600F040F8257720680169BE
:101CE000C943C90708D1C168C943C90704D1891EBE
:101CF0000161204600F032F820680169C9430906F5
:101D000009D4C168C943090605D46FF08001016197
:101D10002046FFF74FFE20680169C943490609D4F0
:101D2000C168C943490605D46FF0400101612046EE
:101D300000F01EF820680169C94389060BD4C16808
:101D4000C943890607D46FF0200101612046BDE830
:101D50007040FFF730BE70BD7047704700680349A0
:101D6000884201D1FFF7B8BA704700000010004068
:101D70007047704770B5026804461068D1685369AF
:101D800010F00F0F52D003F0010501F490762E43AE
:101D90005FD0C20705D0CA0503D5E26B42F001024D
:101DA000E263420705D5DA0703D0E26B42F0020294
:101DB000E263820705D5DA0703D0E26B42F0040242
:101DC000E263020707D501F020022A4303D0E26B49
:101DD00042F00802E263E26B002A33D0800604D5A9
:101DE000880602D5204600F03CFE20684069E16B81
:101DF000C0F38010090700D428B3204600F01AFE73
:101E00002068416949061AD5416921F040014161C4
:101E1000606BA0B11B490165606BFFF71AF90028E0
:101E200010D0606B016DBDE870400847830610D587
:101E30008B060ED52046BDE8704000F012BE20464D
:101E4000FFF797FF70BD2046FFF793FF0020E06388
:101E500070BD030606D50B0604D52046BDE87040CC
:101E600000F0DEBE4006F3D54806F1D5D168204625
:101E700021F04001D160202184F8391000F0C0F831
:101E800070BD00009529000870B5040004D094F8D6
:101E90003900002510B106E0012070BD84F83850EB
:101EA000204600F023F8242084F839002068C16817
:101EB00021F40051C160204600F01EFE2068016937
:101EC00021F4904101612068416921F02A014161BA
:101ED0002068C16841F40051C160E563202084F8A6
:101EE000390084F83A00002070BD000010B586B0BB
:101EF000044614216846FEF70DFA17492068884207
:101F000028D116480021026842F4003202600068BD
:101F100000F40030059011481038026842F00802C1
:101F20000260006800F00800059060200090022028
:101F3000CDE9010103200390072004906946084879
:101F4000FFF7E2F8002211462620FFF747FA262085
:101F5000FFF736FA06B010BD00440040403802409A
:101F6000000C0240F8B5044690F83A0020283CD115
:101F7000C1B3BAB394F83800012836D0012084F8F0
:101F80003800A162A2850025E563222084F83A008A
:101F9000636B1748D863636B16481864636B164805
:101FA000D864606B134605650846666B2168024677
:101FB0003046091DFFF75FF820680168416800910D
:101FC00084F83850C16841F48071C160206841696B
:101FD00041F0010141612068416941F040014161E6
:101FE0000020F8BDFFE70120FBE70220F9E7000031
:101FF000EF2900082B2A0008A52900087047704720
:102000007047FEE7054810B5018800224068FFF7D9
:1020100057F9BDE81040562001F0A4BA4000002056
:10202000054830F8CE1F0A0A0272417202494FF485
:102030000070D031FEF78EBB1C040020024803491B
:102040000088C88070470000540000201C04002055
:1020500070B5294C2DED068BB4F90E00FEF77EFA13
:102060009FED26AB53EC1A2BFEF706FA41EC180B4A
:10207000B4F90600FEF772FA9FED229B53EC192B80
:10208000FEF7FAF953EC182BFEF74FF9FEF777FA43
:1020900000B200EE100AE081B4F90000F8EEC00AC8
:1020A00000EE100A04F11400B8EEC00A00F03EFF82
:1020B000BDEEC00A10EE100A05B2A4F8CC50B4F977
:1020C000CE00FEF74BFA53EC1A2BFEF7D5F941EC94
:1020D000180B2846FEF742FA53EC192BFEF7CCF901
:1020E00053EC182BFEF721F9FEF749FAA4F8CE00BD
:1020F000BDEC068B70BD00001C0400209A999999D4
:102100009999C93F9A9999999999E93F10B5FFF71B
:1021100095FFFFF79DFFBDE81040FFF781BF00006E
:10212000DFED051A9FED051ADFED050AB1EE000A95
:10213000044800F03BBF0000003C1C466F12833B8C
:102140000AD7A33B300400200D4810B50B490160AD
:102150001021416000218160C1600161416101760F
:1021600041768176C17601774177FEF756FE0028E9
:1021700003D0BDE81040FEF714BB10BD0064004062
:102180000C03002030B5174D95B012AB95E8070051
:1021900083E8070012A800F05AFE134C0C352060AB
:1021A00095E80F000EAD85E80F0000210EA800F0A5
:1021B000D8FD0C49E0601C221C316846FEF791F8FE
:1021C0000021684600F072FE064960601C2238312A
:1021D00007A8FEF786F8002107A800F067FEA060B8
:1021E00015B030BD5C410008000000202DE9F04F23
:1021F00087B014216846FEF78DF83F48016841F02A
:1022000080010160016801F080010591016841F0E1
:1022100001010160016801F001010591016841F0CF
:1022200008010160016801F008010591016841F0B1
:1022300002010160016801F002010591016841F0AD
:10224000100101600068DFF8B48000F0100040F277
:10225000FC740590002221464046FFF731F8DFF874
:10226000A0904FF46046002231464846FFF728F818
:10227000DFF890A0012240215046FFF721F84FF4EB
:102280004077002239465046FFF71AF8DFF878B059
:10229000002201215846FFF713F80094012403257A
:1022A000694640460194CDE90245FEF72DFFCDE990
:1022B000006469464846CDE90245FEF725FF402007
:1022C000CDE900040020CDE9020569465046FEF73D
:1022D0001BFFCDE9007469465046CDE90245FEF783
:1022E00013FF0094694658460194CDE90245FEF774
:1022F0000BFF07B0BDE8F08F30380240000002400D
:10230000000C0240000402400010024010B586B0EC
:1023100000241748009401940294039404941349F0
:10232000059401600721C0E901144FF6FF71C0E96F
:1023300003148461FFF788FB08B1FEF732FA4FF40B
:102340008050009069460A48FFF7E7FB08B1FEF7A6
:1023500028FA049404A906480594FFF72DFB0028E9
:1023600001D0FEF71EFA06B010BD000000040040C8
:10237000340300200C4810B50A4901604FF4E131E4
:102380004160002181600C22C160C0E904128161BA
:10239000C161FFF779FD002803D0BDE81040FEF7CA
:1023A00000BA10BD0044004088030020FEE77047DB
:1023B00010B5094C012221886068FEF781FF0320D7
:1023C00001F0D0F8002221886068FEF779FFBDE8AF
:1023D0001040082001F0C6B84000002010B5094C9C
:1023E000012221886068FEF76BFF072001F0BAF830
:1023F000002221886068FEF763FFBDE810400620D8
:1024000001F0B0B84000002070B514460D4600F051
:1024100008F8284600F005F82046BDE87040AFF304
:10242000008070B504460025200602D5FFF7D6FFD0
:1024300001E0FFF7BDFF60066D1C040EEDB2082D34
:10244000F2D370BD31490A88C2F30A02A2F5806254
:1024500002804A788B78D20842EA4312C2F30A0219
:10246000A2F5806242808A78CB78920942EA8302A0
:102470000B7942EA8322C2F30A02A2F580628280CB
:102480000A794B79520842EAC312C2F30A02A2F552
:102490008062C2804A79920902724A79C2F30112BB
:1024A0004272CA8842810A8982810A7B82734A7B8E
:1024B000C273CA890282098AC1F30A01C1F5806127
:1024C000418402F00101817402F00201C17402F042
:1024D0000401017502F00801417502F010018175D7
:1024E00002F02001C17502F04001017602F0800186
:1024F000417600218176C176017741778177C17776
:1025000080F8201080F8211070470000740300202C
:102510002DE9F04144490020444C487002462021F6
:102520002046FEF7CDFE40F65435284600F0D0FB9D
:10253000002240212046FEF7C3FE284600F0C8FBDB
:10254000002280212046FEF7BBFE284600F0C0FB9B
:10255000002204212046FEF7B3FE284600F0B8FB17
:10256000002208212046FEF7ABFE284600F0B0FB13
:10257000002210212046FEF7A3FE284600F0A8FB0B
:102580002B4E00224FF400513046FEF799FE2846AC
:1025900000F09EFB00224FF480413046FEF790FE93
:1025A000284600F095FB00224FF400413046FEF72C
:1025B00087FE284600F08CFBA615002231462046F7
:1025C000FEF77EFE284600F083FB671500223946A1
:1025D0002046FEF775FE284600F07AFB0022211502
:1025E0002046FEF76DFE284600F072FB114C0022DB
:1025F00031462046FEF764FE284600F069FB0022C3
:1026000039462046FEF75CFE284600F061FB0022BA
:1026100001210948FEF754FE284600F059FBBDE8A9
:10262000F041FEF719B90000200000200000024030
:10263000000C0240000402400010024010B53C4C67
:10264000607805285FD060899C2804D9BDE81040D7
:10265000012000F073BF401C6081A089401C80B243
:10266000A081022801D3801EA0810004000C4AD161
:10267000FFF7C8FC0120A0616069401E606101286D
:1026800001DAC01D6061E061E069052824DBA07902
:1026900018B100227F21202002E043220021602087
:1026A000FFF7B2FEA069401CA0613E2818D07D282B
:1026B0001CD0BB2828D0F9282DD0A0F5807137393F
:1026C00006D0A0F580717539E1692BD0491C12E064
:1026D000E169C1F1060127E0002211461046DFE75B
:1026E000E169C1F1060112E0C91D04E0E169C1F12F
:1026F000060113E0C91FE161072901DDC91FE1617E
:10270000B0F5D97FC0DD10BDE169C1F10101E16122
:102710000129E9DBF0E7E169C1F10101E161072984
:10272000B2DDE7E7C1F10101E1610729E2DCE7E79A
:102730002000002010B5502080F31188BFF34F8F88
:10274000BFF36F8F01F0BEFB18B104494FF080500A
:102750000860002080F3118810BD000004ED00E047
:1027600030B593B030216846FDF7D4FD14210CA894
:10277000FDF7D0FD1A480025016841F08051016045
:10278000006800F0805011901648016841F48041C3
:1027900001600068022400F4804011900120009044
:1027A000000401908001CDE90640192008904FF403
:1027B000A870CDE9090404200B906846FEF74CFF91
:1027C0000CA90F2081E831004FF4A0500F90E002D7
:1027D000109005210CA8FEF733FE13B030BD0000A9
:1027E00040380240007000400548016841F4700123
:1027F000016003494FF000608039086070470000B5
:1028000088ED00E00148FFF7F4B90000C80300209C
:10281000F0B50268254C264D264E274F274B4FF02A
:10282000804CA04209D0604507D0A84205D0B042F4
:1028300003D0B84201D0984204D122F0700E4A6809
:1028400042EA0E02A0421BD0604519D0A84217D020
:10285000B04215D0B84213D0984211D0184DA842BA
:102860000ED0184DA8420BD0174DA84208D0174DD6
:10287000A84205D0164DA84202D0164DA84203D159
:1028800022F44075CA682A434D6922F080022A4327
:1028900002608A68C2620A688262A04201D09842DD
:1028A00001D10969016301214161F0BD00000140CE
:1028B0000004004000080040000C004000040140FB
:1028C0000040014000440140004801400018004021
:1028D000001C00400020004010B5846842EA03223A
:1028E00024F47F440A432243826010BD826822F0B0
:1028F00070020A4342F007018160704710B5036A15
:10290000046A24F001040462846924F0F00444EAB7
:10291000021423F00A020A438461026210BD10B55A
:10292000036A23F0100303628369046A23F470438B
:1029300043EA023224F0A00343EA011182610162FA
:1029400010BD0000084D286800F04CFA040006D0C5
:10295000FFF778FD0A222146E86800F015FA0A2000
:1029600000F0F3F9EFE7000000000020FFF7D8FBCC
:1029700000F0C6FA00F0B2F900F0B2FF012000F05A
:10298000E4F9F9E70249122201F11400FFF7EABA6B
:102990007403002010B5806B0021C185C184FFF74E
:1029A000E8F910BD70B5846B2068406994F839105F
:1029B000C0F3C0100025212904D118B1E5842046B8
:1029C00000F046F82068406994F83A10C0F380108F
:1029D000222904D118B1E585204600F02BF8E06BE0
:1029E00040F01000E0632046FFF7C3F970BD10B55A
:1029F0000146806B09680968C90513D40021C185A7
:102A00000168CA6822F48072CA6001684A6922F0CB
:102A100001024A6101684A6922F040024A612021AC
:102A200080F83A10FFF7EAFA10BD10B5806BFFF797
:102A3000E6FA10BD0168CA6822F49072CA600168A3
:102A40004A6922F001024A61202180F83A10704759
:102A50000168CA6822F0C002CA60202180F83910DB
:102A6000704710B590F83A10222901D0022010BD0D
:102A70008168B1F5805F11D00169002901681FD01C
:102A8000496801F07F03816A4A1C82620B70C18D24
:102A9000491E0904090CC18518D02BE00269816A1E
:102AA000002A0268526805D0D2B20A80816A491CA5
:102AB0008162ECE7C2F308020A80816A891CF7E7A9
:102AC0004A68816A4B1C83620A70E0E70168CA6841
:102AD00022F02002CA600168CA6822F48072CA60CB
:102AE00001684A6922F001024A61202180F83A1007
:102AF000FFF784FA002010BD2DE9F041044600687C
:102B00000169E26821F44051114301612169A06823
:102B1000E26908436169114308432168CA6849F2C0
:102B20000C639A430243CA6020684169A26921F498
:102B3000407111434161E069192764253226B0F5DF
:102B4000004F354A354920684FF0000806D08842CA
:102B500001D0904236D1FEF73DFD35E0884201D0EC
:102B6000904202D1FEF736FD01E0FEF723FD6168D9
:102B70004A18A0FB070148EB0803FDF781FB01465B
:102B8000B0FBF5F00201B1FBF5F06FF0180358430C
:102B900001EB800006EBC000B0FBF5F000F0F800A0
:102BA00002EB4002B1FBF5F0584301EB800006EB6D
:102BB000C000B0FBF5F000F0070021681044886009
:102BC000BDE8F081FEF7F6FC61688B0F8A00A0FB80
:102BD0000701FDF755FB0146B0FBF5F06FF0180259
:102BE000504301EB800006EB0010B0FBF5F000F065
:102BF000F002B1FBF5F002EB0012B1FBF5F06FF063
:102C00001803584301EB800006EB0010B0FBF5F011
:102C100000F00F00D1E70000001401400010014057
:102C200090F83910212901D0022070478168B1F550
:102C3000805F016A0BD04A1C026202680978516009
:102C4000C18C491E0904090CC1840ED017E0098803
:102C50000268C1F30801516001690029016A02D0CC
:102C6000491C0162ECE7891CFBE70168CA6822F095
:102C70008002CA600068C16841F04001C160002064
:102C8000704700000148FFF775B800008803002076
:102C9000FEE70907090E002804DB00F1E02080F8B8
:102CA0000014704700F00F0000F1E02080F8141DC0
:102CB000704702E008C8121F08C1002AFAD1704705
:102CC0007047002001E001C1121F002AFBD17047AC
:102CD00001E0401E80B20028FBD1704700B5012002
:102CE00000F02CFC022000F029FC072000F026FC5C
:102CF00008205DF804EB00F021BCEFF3058000280C
:102D000000D0012070470000FEF7EEFAFFF728FD23
:102D1000FFF76CFAFFF718FAFFF72CFBFFF7F6FA4C
:102D2000FDF7EEFCFFF72EFE6420FEF7DBF9FFF760
:102D300029FA00F011F800BFFFF73AFBFCE7014663
:102D40000020842900D0C81C704710B500B90120AC
:102D500000F00EFD002010BD10B500F055FD002064
:102D600010BD38B5D0E9011204683AB1C3682BB17F
:102D700000200090204600F07FFE38BD2046BDE8D0
:102D80003840002200F054BE37B5054682B000201E
:102D90000090140000D10124FFF7AFFF4FF00003B3
:102DA00088B16A4603A9284600F08EFF012811D198
:102DB000009890B10A494FF080500860BFF34F8FE0
:102DC000BFF36F8F09E0224603A9284600F0CCFE2E
:102DD000012802D0FF2005B030BD0020FBE7000035
:102DE00004ED00E070B5002504462E46FFF785FF90
:102DF00048B15020EFF3118580F31188BFF34F8F56
:102E0000BFF36F8F01E000F015FC0021A26809E01C
:102E100020690844B0FBF2F302FB130063681B5CFB
:102E200043B1491C8A42F3D8FFF767FF58B185F3D5
:102E300011880AE0626801211154E268216820616A
:102E400000FB0216F0E700F015FC304670BD2DE9DE
:102E5000F04105464068C01C20F00307142000F034
:102E6000C9FA04001FD0002628682661C4E90207B9
:102E7000286800F0BFFA606088B12868784300F0E5
:102E8000B9FA206040B1002002E061680E54401C95
:102E900029688142F9D806E0606800F0FFFB20460F
:102EA00000F0FCFB00242046BDE8F0817FB50D4614
:102EB00004464169B0F9080081B1A16971B1FFF719
:102EC0003EFFD4E905128DE80700D4E900102B4637
:102ED000226900F0BEFF039004B070BDFFF72FFF22
:102EE00003A9CDE90001208A2B4682B2D4E9001063
:102EF00000F082FF012801D00020EDE70398EBE706
:102F000008480121017001810021417081704181D7
:102F100081810171C1704171817114210248FDF7F5
:102F2000F9B90000200000200804002030EE600AFB
:102F3000B0EE002A80ED030A90ED071AF0EE401A79
:102F400041EE421A90ED082A70EE410A71EE821AA3
:102F500090ED002A62EE200A90ED012A42EE000A6E
:102F600090ED022A42EE210AC0ED040A80ED081A13
:102F700080ED070A90ED060AB1EE401AF4EEC10AA0
:102F8000F1EE10FA02D280ED041A06E0F4EEC00A67
:102F9000F1EE10FA01DD80ED040A90ED050AD0EDA6
:102FA000040A30EE200A80ED050A7047C0ED061ACB
:102FB00080EC030A704700002DE9F041184C0F46E1
:102FC000054666692068001D00F0E4FA38B92068FB
:102FD00090F82C1001208840A1698143A161681CF0
:102FE00007D137B12168BDE8F0410E48091D00F056
:102FF00015BB20683544B5424560216805D2A068FC
:10300000BDE8F041091D00F0F1BA6068091D00F04B
:10301000EDFA206B854200D22563BDE8F081000007
:1030200058000020D00500202DE9F041054600F0B1
:1030300001FB2E4C2069401C206120682C4F10B1F0
:10304000E06940B32DE025602069012829D10026E0
:1030500006EB860007EB800000F0BAFA761C072E1C
:10306000F6D323488C3000F0B3FA2148A03000F0AA
:10307000AFFA1F48B43000F0ABFA1D48C83000F07A
:10308000A7FA1B48DC3000F0A3FA19488C306060C6
:103090001430A06005E02068E96AC06A884200D860
:1030A0002560E06A401CE062E96A0120A26988406C
:1030B0001043A06101EB810007EB8000291D00F0A7
:1030C000ADFA00F0D7FAE06900280CD02068E96A70
:1030D000C06A884207D207494FF080500860BFF3AA
:1030E0004F8FBFF36F8FBDE8F081000058000020C4
:1030F000F404002004ED00E02DE9F041856B174653
:1031000004460026026C82B1C7B1E068FDF7E9F819
:10311000E168206C091AE1602268914202D2A1683C
:10312000081AE060022F16D017E02068A8B9A0683E
:1031300000F02CFF06460020A0600EE06068FDF75E
:10314000D0F8216C606808446060A168884204D3AC
:103150002068606001E005B16D1E6D1CA5633046FE
:10316000BDE8F08110B5044690F8510058B101282F
:103170000CD002280FD0502080F31188BFF34F8F5E
:10318000BFF36F8FFEE7206B00F088FA2046BDE8A2
:10319000104000F083BA10BD10484FF47051420740
:1031A00006D0C01D0D4920F00700411AC1F570512D
:1031B0000B4A00230144C2E900030839103A21F008
:1031C000070111604B600B600B1AC0E9001393609C
:1031D0004FF000405360D06070470000E4050020CD
:1031E000A4000020144E154CA6F1C8074FF08058DB
:1031F000DFF84C9012E000BF00F01CFAF068C568E0
:10320000281D00F0C7F92069401E2061E068401EBB
:10321000E06000F02FFA2846FFF7A4FFE0680028DE
:10322000EAD138680128F9D9C9F80080BFF34F8F77
:10323000BFF36F8FF2E70000BC05002058000020AC
:1032400004ED00E00346009829B10260C0E90F31A7
:10325000012100F045BC0060F8E72DE9F0479A46EF
:10326000DDE9098481466FF00303206B03EB8202E2
:103270001044089E20F00707780707D0502080F3FD
:103280001188BFF34F8FBFF36F8FFEE7002561B149
:10329000002023180A5C83F834200A5C12B1401C19
:1032A0001028F6D384F8435001E084F83450072EF8
:1032B00000D30626E662C4E91165201D00F093F9EB
:1032C00004F1180000F08FF92461C6F10700646270
:1032D000A061E56484F8505052464946384600F0F3
:1032E000F5F82060B8F1000F01D0C8F80040BDE843
:1032F000F087000030B5114900E011460A688242AB
:10330000FBD34B685C18844203D140681844486082
:10331000084643681C18944209D1084C103C2468A4
:10332000A24209D052681A4442600A6812680260D8
:10333000814200D0086030BD0460F9E7A40000209D
:1033400006484168096829B14168C968C96849687F
:10335000016370474FF0FF31FAE70000580000208A
:1033600008484068401C4FF0500080F3118804D09A
:10337000BFF34F8FBFF36F8FFEE7BFF34F8FBFF3E6
:103380006F8FFEE7AC0000202DE9F041044600F00D
:1033900051F994F9455004F1240609E0606A48B1F6
:1033A000304600F03FFE08B100F010FA6D1E6DB21D
:1033B000002DF3DC4FF0FF3684F8456000F05AF939
:1033C00000F038F994F9445004F1100709E020693D
:1033D00048B1384600F026FE08B100F0F7F96D1E3E
:1033E0006DB2002DF3DC84F84460BDE8F04100F0DC
:1033F00041B900002DE9F0410546002700F03AFAF6
:10340000314E306808B9FFF7C7FEF06805424BD16E
:10341000C5B3083568070ED005F00700C0F10800F5
:103420000544680707D0502080F31188BFF34F8F01
:10343000BFF36F8FFEE72DB37068854234D8224802
:10344000103001460C6801E020460C466168A94234
:1034500002D221680029F7D131688C4224D0076854
:103460002168016060680837411B10290FD9601975
:10347000420708D0502080F31188BFF34F8FBFF36D
:103480006F8FFEE710E041606560FFF733FF616812
:103490007068401A7060B268904200D2B060F06804
:1034A00001430020C4E9000100F0F6FD780707D0D1
:1034B000502080F31188BFF34F8FBFF36F8FFEE76B
:1034C0003846BDE8F08100009400002010B5031FCD
:1034D0004FF080741C601B1F21F001011960191F3F
:1034E000044B0B6014390A60091F6FF00202443864
:1034F0000A6010BD613300080E4842799AB1014656
:103500000D4BC978012A10D011D901F10101C9B2BE
:10351000C170A2F101024271132901D91439C1709D
:10352000C8B2185C704701207047585C7047002093
:103530007047000020000020080400200849074BC5
:103540000A799854521CD0B20871132801D9143842
:1035500008714879401C4871704700000804002039
:103560002000002070B54FF6FA75094E281A84B273
:10357000306844623046FEF797FA306801E0416AED
:103580008CB2AC42FBD3BDE870400148FEF7AFBA45
:1035900034030020D0E9013201699A60D0E90123A7
:1035A0005A604A68824201D182684A600022026100
:1035B0000868401E0860086870470000034B0360FD
:1035C00003F154000860802010607047B8000020AC
:1035D00000F108014FF0FF32C0E90112C160016142
:1035E00000210160704700210161704730B50B6810
:1035F0005A1C02D000F1080202E0026904E02246EF
:10360000546825689D42FAD953684B6099608A6076
:10361000516008610168491C016030BD42684A6020
:1036200093688B6093685960916008610168491CD8
:1036300001607047502080F31188BFF34F8FBFF3B4
:103640006F8F0A494868401C486001280CD108481F
:10365000006810F0FF0F07D0502080F31188BFF3EF
:103660004F8FBFF36F8FFEE770470000AC00002064
:1036700004ED00E00849486828B1401E486001D1C7
:1036800080F311887047502080F31188BFF34F8F6B
:10369000BFF36F8FFEE70000AC00002070B500287C
:1036A00027D0144DA0F108046168E868014207D1F1
:1036B000502080F31188BFF34F8FBFF36F8FFEE769
:1036C00022683AB1502080F31188BFF34F8FBFF3C7
:1036D0006F8FFEE78143616000F0CCF86068696835
:1036E000084468602046FFF705FEBDE8704000F022
:1036F000D3BC70BD940000204FF0E0200021016198
:10370000816105494FF47A720968B1FBF2F1491EF3
:1037100041610721016170471C00002010B5FCF7D2
:1037200099FD114910280ED300F1E02090F8F00324
:103730000A78904207D2502080F31188BFF34F8F50
:10374000BFF36F8FFEE709480068896800F4E06006
:10375000884207D9502080F31188BFF34F8FBFF301
:103760006F8FFEE710BD0000AC0000200CED00E004
:1037700010B5020014D00F48806B38B1502080F390
:103780001188BFF34F8FBFF36F8FFEE700F072F821
:1037900000211046FFF710FC00F07EFC002807D146
:1037A00005494FF080500860BFF34F8FBFF36F8F14
:1037B00010BD00005800002004ED00E002498A6AB4
:1037C00002604969416070475800002001490120AA
:1037D000486270475800002010B50C4650B10949A6
:1037E00009681831FFF702FF2046BDE810400121AB
:1037F000FFF7E2BB502080F31188BFF34F8FBFF378
:103800006F8FFEE75800002010B586B000240394A7
:1038100005AA04A903A80494FFF7D0FEDDE903017B
:103820000094CDE9011000230EA11048059A00F084
:1038300010FB0F490028486311D0502080F31188F5
:10384000BFF34F8FBFF36F8F4FF0FF30086301203E
:10385000C8614C6106B0BDE8104000F06FB806B01A
:1038600010BD000049444C4500000000E53100084F
:10387000580000200248816B491C8163704700009A
:10388000580000201448816B11B10121416270473A
:10389000002141628169B1FA81F1C1F11F0101EB9F
:1038A00081020E4951F822306BB101EB820101F126
:1038B00008034A6852684A609A4201D152684A60D5
:1038C000D16801607047502080F31188BFF34F8F9B
:1038D000BFF36F8FFEE7000058000020F4040020C3
:1038E00010B5FFF709FE0021124A134B09281CD21C
:1038F000DFE800F01B05080B0D1114161900FEF788
:1039000081FB12E0FEF79AFE0FE011800DE04FF40C
:10391000FA70108009E00120987106E0997104E0C6
:10392000FCF740FF01E0FEF7F3FDBDE81040FEF7B5
:10393000EDBB000054000020200000201CB53748DB
:103940000168374A914207D1502080F31188BFF3B4
:103950004F8FBFF36F8FFEE700683149491E8842E1
:1039600007D1502080F31188BFF34F8FBFF36F8FC3
:10397000FEE72C4908780190FF20087008788DF840
:1039800000009DF800009DF8002000F0F00090423B
:1039900007D0502080F31188BFF34F8FBFF36F8F94
:1039A000FEE79DF80000204B00F050001870072043
:1039B000986005E09DF8002052008DF80020401E20
:1039C0009DF800201206F5D49860032807D05020F7
:1039D00080F31188BFF34F8FBFF36F8FFEE74FF473
:1039E00040709860019808700C482030016841F4DC
:1039F00070010160016841F070410160FFF77CFED9
:103A000000205860FCF7EEFB0848016841F0404197
:103A10000160FCF7D3FB00201CBD000000ED00E0BE
:103A200071C20F4100E400E0AC00002034EF00E080
:103A3000F8B517460E46050014D0DEB105FB06F0BA
:103A40004830FFF7D7FC04000AD0002084F8460075
:103A500004F148023B46314628460094FFF7F2FB4A
:103A60002046F8BD502080F31188BFF34F8FBFF37D
:103A70006F8FFEE70020E3E738B5049D18B153B11E
:103A8000CAB181B120E0502080F31188BFF34F8F7D
:103A9000BFF36F8FFEE7502080F31188BFF34F8F85
:103AA000BFF36F8FFEE7502080F31188BFF34F8F75
:103AB000BFF36F8FFEE739B1502080F31188BFF359
:103AC0004F8FBFF36F8FFEE748241C46012384F815
:103AD00046302B460094FFF7B5FB204638BD00006A
:103AE00070B50D46040025D0FFF7A4FDD4E90F20E2
:103AF000216802FB0011A1600021A16321686160BF
:103B00000A46D4E90F01401E00FB0121E160214675
:103B10004FF0FF3001F8440F487004F110008DB1F0
:103B2000FFF756FD04F12400FFF752FDFFF7A2FD59
:103B3000012070BD502080F31188BFF34F8FBFF379
:103B40006F8FFEE721690029F0D000F06BFA0028A2
:103B5000ECD004494FF080500860BFF34F8FBFF3A3
:103B60006F8FE3E704ED00E02DE9FF4782B01D46CB
:103B70008A464FF00008040003D0BAF1000F08D0C5
:103B800011E0502080F31188BFF34F8FBFF36F8F88
:103B9000FEE7206C38B1502080F31188BFF34F8FBF
:103BA000BFF36F8FFEE7022D0AD1E06B012807D02B
:103BB000502080F31188BFF34F8FBFF36F8FFEE764
:103BC00000F072F93F4F4FF000094FF0805648B9AE
:103BD000049838B1502080F31188BFF34F8FBFF3A2
:103BE0006F8FFEE7FFF726FDA06BE16B884207D3DE
:103BF000022D05D00498D0B1B8F1000F1AD01EE004
:103C00002A4651462046FFF777FA616A19B104F156
:103C1000240000F007FA20B13E60BFF34F8FBFF3DE
:103C20006F8FFFF727FD012006B0BDE8F087FFF793
:103C300021FD22E06846FFF7C1FD4FF00108FFF7C4
:103C400019FDFFF717FEFFF7F5FC94F94400401C3F
:103C500001D184F8449094F94500401C01D184F8C6
:103C60004590FFF707FD04A9684600F08BF830B1D6
:103C70002046FFF789FB00F00FFA0020D4E7FFF79A
:103C8000D9FCA06BE16B884213D1FFF7F3FC04F180
:103C900010000499FFF7A0FD2046FFF775FB00F028
:103CA000FBF900289ED13E60BFF34F8FBFF36F8FAB
:103CB00098E7FFF7DFFC2046FFF766FB00F0ECF922
:103CC00090E7000004ED00E02DE9F0471F46904624
:103CD0008946040003D0B9F1000F08D011E050204C
:103CE00080F31188BFF34F8FBFF36F8FFEE7206C17
:103CF00038B1502080F31188BFF34F8FBFF36F8F1F
:103D0000FEE7022F0AD1E06B012807D0502080F394
:103D10001188BFF34F8FBFF36F8FFEE7FFF7FEFCF5
:103D20005020EFF3118680F31188BFF34F8FBFF35C
:103D30006F8FA06BE16B884206D3022F04D0002066
:103D400086F31188BDE8F08794F945503A46494614
:103D50002046FFF7D1F9681C04D06D1C84F845504B
:103D60000120EDE7606A0028FAD004F1240000F099
:103D700059F90028F4D0B8F1000FF1D00121C8F8AA
:103D80000010EDE72DE9F0410C46050011D0C4B15B
:103D9000FFF750FC174B5A696E682068911B471C4F
:103DA00017D02F689B6A9F4219D0964217D80124DA
:103DB00010E0502080F31188BFF34F8FBFF36F8F57
:103DC000FEE7502080F31188BFF34F8FBFF36F8F52
:103DD000FEE70024FFF74EFC2046BDE8F081884254
:103DE00005D9401A20602846FFF7E8FCF1E70020DB
:103DF0002060DCE7580000202DE9FF5F8346DDE905
:103E00000E87994616468A469000FFF7F3FA05009A
:103E10001CD05420FFF7EEFA040014D000202563D4
:103E200084F85100CDE90240CDE900874B46324687
:103E300051465846FFF711FA2046FFF7F5F80120E2
:103E400004B0BDE8F09F2846FFF728FC4FF0FF3094
:103E5000F6E7F0B585B0DDE90B640A9DA6B1DCB1EB
:103E6000542700972663022684F85160002604AF89
:103E7000CDE90246CDE90057FFF7EFF92046FFF7FD
:103E8000D3F8049805B0F0BD502080F31188BFF33B
:103E90004F8FBFF36F8FFEE7502080F31188BFF381
:103EA0004F8FBFF36F8FFEE70548C16919B1806B73
:103EB00018B10020704701207047022070470000B1
:103EC000580000202DE9F0412E4C0027A06B40B196
:103ED000206A401C2062606A00B101273846BDE8B4
:103EE000F0816669761C666113D16068006838B13C
:103EF000502080F31188BFF34F8FBFF36F8FFEE721
:103F00006068A1686160A060A06A401CA062FFF7C1
:103F100017FA206BDFF87080864209D3606800686A
:103F200080B16068C068C568686886420DD2206349
:103F30002068C06A00EB800158F821000128CAD926
:103F40000127C8E74FF0FF30F1E7281DFFF722FBFC
:103F5000A86A18B105F11800FFF71CFBE86A0121F7
:103F6000A26981401143A16100EB800108EB81004F
:103F7000291DFFF753FBE86A2168C96A8842CDD33F
:103F80000127CBE758000020F404002070B504009E
:103F90004FF0000140D0214D2868844207D05020C6
:103FA00080F31188BFF34F8FBFF36F8FFEE7A06CD4
:103FB00038B1401EA064636CE26A9A422CD040B1D2
:103FC0002AE0502080F31188BFF34F8FBFF36F8F2B
:103FD000FEE7201DFFF7DEFA114A012150B9E06A21
:103FE00000EB800352F8233023B9AB6901FA00F0EB
:103FF0008343AB61606CE062C0F10700A061E06ADE
:10400000AB6981401943A96100EB800002EB80009D
:10401000211DFFF703FB0121084670BD5800002059
:10402000F40400202DE9F041C068C468ACB104F18B
:1040300018000746FFF7AEFA154DA86B0126A0B190
:1040400039461448FFF7EAFAE06A2968C96A8842E3
:104050001CD901206E62BDE8F081502080F31188E8
:10406000BFF34F8FBFF36F8FFEE7201DFFF792FA6C
:10407000E16AAA6906FA01F01043A86101EB810028
:104080000449B43901EB8000211DDBE70020E2E7A1
:1040900058000020A80500202DE9F0472C4D0024F1
:1040A0002746A86B38B1FFF7C5FAA86B401EA86376
:1040B000A86B40B146E0502080F31188BFF34F8FCA
:1040C000BFF36F8FFEE72969224E0120D1B3A6F11D
:1040D000B40980463068E8B1F068C46804F118009B
:1040E000FFF758FA201DFFF755FAE06AAA6908FAA7
:1040F00000F11143A96100EB800109EB8100211D52
:10410000FFF78CFAE06A2968C96A8842E2D3C5F8E9
:104110002480DFE70CB1FFF713F92C6A44B146465F
:10412000FFF7D0FE00B16E62641EF9D10020286254
:10413000686A38B10849012738070860BFF34F8F14
:10414000BFF36F8FFFF796FA3846BDE8F08700009F
:1041500058000020A805002004ED00E01000000039
:104160002400000000000000100000000400000017
:104170000000000000000000CC4100086D2900088C
:1041800002000000000000008000000000000000AD
:1041900000000000C8410008452900080300000095
:1041A000000000008000000000000000000000008F
:1041B00000000000000000000102030406070809D7
:1041C00000000000010203044D53470052554E0009
:1041D000F041000800000020B8000000B22C0008E8
:1041E000A8420008B800002030450000C22C00089A
:1041F00000000000000000000000000000000000BF
:104200000100000010000000000000000024F40085
:104210000000000000000000000000000000020399
:104220000405000000000000000000000000000085
:10423000000000000000000000000000000000007E
:10424000000000000000000000000000000000006E
:10425000000000000000000000000000000000005E
:10426000000000000000000000000000000000004E
:10427000000000000000000000000000000000003E
:10428000000000000000000000000000000000002E
:10429000000000000000000000000000000000001E
:0842A000AAAAAAAA000000006E
:040000050800018965
:00000001FF
